{
  "_format": "hh-sol-artifact-1",
  "contractName": "FactoringChallenge",
  "sourceName": "contracts/FactoringChallenge.sol",
  "abi": [
    {
      "inputs": [
        {
          "internalType": "bytes",
          "name": "_product",
          "type": "bytes"
        },
        {
          "internalType": "uint256",
          "name": "_withdrawlDelay",
          "type": "uint256"
        }
      ],
      "stateMutability": "nonpayable",
      "type": "constructor"
    },
    {
      "anonymous": false,
      "inputs": [],
      "name": "ChallengeSolved",
      "type": "event"
    },
    {
      "inputs": [
        {
          "internalType": "bytes32",
          "name": "",
          "type": "bytes32"
        }
      ],
      "name": "claims",
      "outputs": [
        {
          "internalType": "uint256",
          "name": "",
          "type": "uint256"
        }
      ],
      "stateMutability": "view",
      "type": "function"
    },
    {
      "inputs": [],
      "name": "donate",
      "outputs": [],
      "stateMutability": "payable",
      "type": "function"
    },
    {
      "inputs": [],
      "name": "product",
      "outputs": [
        {
          "internalType": "bytes",
          "name": "val",
          "type": "bytes"
        },
        {
          "internalType": "bool",
          "name": "neg",
          "type": "bool"
        },
        {
          "internalType": "uint256",
          "name": "bitlen",
          "type": "uint256"
        }
      ],
      "stateMutability": "view",
      "type": "function"
    },
    {
      "inputs": [
        {
          "internalType": "bytes32",
          "name": "_hash",
          "type": "bytes32"
        }
      ],
      "name": "submitClaim",
      "outputs": [],
      "stateMutability": "nonpayable",
      "type": "function"
    },
    {
      "inputs": [],
      "name": "winner",
      "outputs": [
        {
          "internalType": "address payable",
          "name": "",
          "type": "address"
        }
      ],
      "stateMutability": "view",
      "type": "function"
    },
    {
      "inputs": [
        {
          "internalType": "bytes",
          "name": "_factor1",
          "type": "bytes"
        },
        {
          "internalType": "bytes",
          "name": "_factor2",
          "type": "bytes"
        },
        {
          "internalType": "bytes",
          "name": "_salt",
          "type": "bytes"
        }
      ],
      "name": "withdraw",
      "outputs": [],
      "stateMutability": "nonpayable",
      "type": "function"
    },
    {
      "inputs": [],
      "name": "withdrawlDelay",
      "outputs": [
        {
          "internalType": "uint256",
          "name": "",
          "type": "uint256"
        }
      ],
      "stateMutability": "view",
      "type": "function"
    }
  ],
  "bytecode": "0x60806040523480156200001157600080fd5b506040516200247438038062002474833981810160405260408110156200003757600080fd5b81019080805160405193929190846401000000008211156200005857600080fd5b838201915060208201858111156200006f57600080fd5b82518660018202830111640100000000821117156200008d57600080fd5b8083526020830192505050908051906020019080838360005b83811015620000c3578082015181840152602081019050620000a6565b50505050905090810190601f168015620000f15780820380516001836020036101000a031916815260200191505b5060405260200180519060200190929190505050816002600001908051906020019062000120929190620003eb565b5062000137826200016c60201b62000dd51760201c565b60028001819055506000600260010160006101000a81548160ff02191690831515021790555080600581905550505062000491565b6000806020830151905060086020845103026200018f826200019860201b60201c565b01915050919050565b60008082905060018303925060028304831792506004830483179250601083048317925061010083048317925062010000830483179250640100000000830483179250680100000000000000008304831792507001000000000000000000000000000000008304831792506001830192506040517ff8f9cbfae6cc78fbefe7cdc3a1793dfcf4f0e8bbd8cec470b6a28a7a5a3e1efd81527ff5ecf1b3e9debc68e1d9cfabc5997135bfb7a7a3938b7b606b5b4b3f2f1f0ffe60208201527ff6e4ed9ff2d6b458eadcdf97bd91692de2d4da8fd2d0ac50c6ae9a827252361660408201527fc8c0b887b0a8a4489c948c7f847c6125746c645c544c444038302820181008ff60608201527ff7cae577eec2a03cf3bad76fb589591debb2dd67e0aa9834bea6925f6a4a2e0e60808201527fe39ed557db96902cd38ed14fad815115c786af479b7e8324736353433727170760a08201527fc976c13bb96e881cb166a933a55e490d9d56952b8d4e801485467d236242260660c08201527f753a6d1b65325d0c552a4d1345224105391a310b29122104190a11030902010060e082015261010081016040527e818283848586878898a8b8c8d8e8f929395969799a9b9d9e9faaeb6bedeeff7f01000000000000000000000000000000000000000000000000000000000000008082870204818160ff038501510495507f800000000000000000000000000000000000000000000000000000000000000085116101000286019550505050506000600182038216148015620003d8575060008314155b15620003e5578160010191505b50919050565b828054600181600116156101000203166002900490600052602060002090601f016020900481019282601f106200042e57805160ff19168380011785556200045f565b828001600101855582156200045f579182015b828111156200045e57825182559160200191906001019062000441565b5b5090506200046e919062000472565b5090565b5b808211156200048d57600081600090555060010162000473565b5090565b611fd380620004a16000396000f3fe6080604052600436106100705760003560e01c8063d0f487151161004e578063d0f487151461017b578063dfbf53ae146102ab578063ed88c68e146102ec578063eff0f592146102f657610070565b8063272666e4146100755780638b35e14e146100a0578063bf9ce952146100db575b600080fd5b34801561008157600080fd5b5061008a610345565b6040518082815260200191505060405180910390f35b3480156100ac57600080fd5b506100d9600480360360208110156100c357600080fd5b810190808035906020019092919050505061034b565b005b3480156100e757600080fd5b506100f0610429565b60405180806020018415158152602001838152602001828103825285818151815260200191508051906020019080838360005b8381101561013e578082015181840152602081019050610123565b50505050905090810190601f16801561016b5780820380516001836020036101000a031916815260200191505b5094505050505060405180910390f35b34801561018757600080fd5b506102a96004803603606081101561019e57600080fd5b81019080803590602001906401000000008111156101bb57600080fd5b8201836020820111156101cd57600080fd5b803590602001918460018302840111640100000000831117156101ef57600080fd5b90919293919293908035906020019064010000000081111561021057600080fd5b82018360208201111561022257600080fd5b8035906020019184600183028401116401000000008311171561024457600080fd5b90919293919293908035906020019064010000000081111561026557600080fd5b82018360208201111561027757600080fd5b8035906020019184600183028401116401000000008311171561029957600080fd5b90919293919293905050506104e6565b005b3480156102b757600080fd5b506102c0610cd1565b604051808273ffffffffffffffffffffffffffffffffffffffff16815260200191505060405180910390f35b6102f4610cf7565b005b34801561030257600080fd5b5061032f6004803603602081101561031957600080fd5b8101908080359060200190929190505050610dbd565b6040518082815260200191505060405180910390f35b60055481565b600073ffffffffffffffffffffffffffffffffffffffff16600160009054906101000a900473ffffffffffffffffffffffffffffffffffffffff1673ffffffffffffffffffffffffffffffffffffffff161461040f576040517f08c379a00000000000000000000000000000000000000000000000000000000081526004018080602001828103825260198152602001807f4368616c6c656e676520686173206265656e20736f6c7665640000000000000081525060200191505060405180910390fd5b436000808381526020019081526020016000208190555050565b6002806000018054600181600116156101000203166002900480601f0160208091040260200160405190810160405280929190818152602001828054600181600116156101000203166002900480156104c35780601f10610498576101008083540402835291602001916104c3565b820191906000526020600020905b8154815290600101906020018083116104a657829003601f168201915b5050505050908060010160009054906101000a900460ff16908060020154905083565b600073ffffffffffffffffffffffffffffffffffffffff16600160009054906101000a900473ffffffffffffffffffffffffffffffffffffffff1673ffffffffffffffffffffffffffffffffffffffff16146105aa576040517f08c379a00000000000000000000000000000000000000000000000000000000081526004018080602001828103825260198152602001807f4368616c6c656e676520686173206265656e20736f6c7665640000000000000081525060200191505060405180910390fd5b60003390506105b98787610df9565b1561062c576040517f08c379a000000000000000000000000000000000000000000000000000000000815260040180806020018281038252600e8152602001807f4578636573732070616464696e6700000000000000000000000000000000000081525060200191505060405180910390fd5b6106368585610df9565b156106a9576040517f08c379a000000000000000000000000000000000000000000000000000000000815260040180806020018281038252600e8152602001807f4578636573732070616464696e6700000000000000000000000000000000000081525060200191505060405180910390fd5b6106b38787610ee6565b15610726576040517f08c379a000000000000000000000000000000000000000000000000000000000815260040180806020018281038252600f8152602001807f5472697669616c20666163746f7273000000000000000000000000000000000081525060200191505060405180910390fd5b6107308585610ee6565b156107a3576040517f08c379a000000000000000000000000000000000000000000000000000000000815260040180806020018281038252600f8152602001807f5472697669616c20666163746f7273000000000000000000000000000000000081525060200191505060405180910390fd5b6107ab611f49565b6107fb88888080601f016020809104026020016040519081016040528093929190818152602001838380828437600081840152601f19601f82011690508083019250505050505050600080610fa3565b9050610805611f49565b61085587878080601f016020809104026020016040519081016040528093929190818152602001838380828437600081840152601f19601f82011690508083019250505050505050600080610fa3565b90506000338a8a8a8a8a8a604051602001808873ffffffffffffffffffffffffffffffffffffffff16815260200180602001806020018060200184810384528a8a82818152602001925080828437600081840152601f19601f8201169050808301925050508481038352888882818152602001925080828437600081840152601f19601f8201169050808301925050508481038252868682818152602001925080828437600081840152601f19601f8201169050808301925050509a50505050505050505050506040516020818303038152906040528051906020012090506000806000838152602001908152602001600020549050600081116109c1576040517f08c379a000000000000000000000000000000000000000000000000000000000815260040180806020018281038252600f8152602001807f436c61696d206e6f7420666f756e64000000000000000000000000000000000081525060200191505060405180910390fd5b60055481430311610a1d576040517f08c379a0000000000000000000000000000000000000000000000000000000008152600401808060200182810382526031815260200180611f6d6031913960400191505060405180910390fd5b6000610b07610a2c868661102a565b6002604051806060016040529081600082018054600181600116156101000203166002900480601f016020809104026020016040519081016040528092919081815260200182805460018160011615610100020316600290048015610ad25780601f10610aa757610100808354040283529160200191610ad2565b820191906000526020600020905b815481529060010190602001808311610ab557829003601f168201915b505050505081526020016001820160009054906101000a900460ff16151515158152602001600282015481525050600161108a565b14610b7a576040517f08c379a000000000000000000000000000000000000000000000000000000000815260040180806020018281038252600f8152602001807f496e76616c696420666163746f7273000000000000000000000000000000000081525060200191505060405180910390fd5b84600160006101000a81548173ffffffffffffffffffffffffffffffffffffffff021916908373ffffffffffffffffffffffffffffffffffffffff1602179055507f9a5748aa1198f8958f1732b51d2e0fc4c37d1db7193face120be13bb0cd1f07160405160405180910390a160008573ffffffffffffffffffffffffffffffffffffffff164760405180600001905060006040518083038185875af1925050503d8060008114610c47576040519150601f19603f3d011682016040523d82523d6000602084013e610c4c565b606091505b5050905080610cc3576040517f08c379a00000000000000000000000000000000000000000000000000000000081526004018080602001828103825260148152602001807f4661696c656420746f2073656e6420457468657200000000000000000000000081525060200191505060405180910390fd5b505050505050505050505050565b600160009054906101000a900473ffffffffffffffffffffffffffffffffffffffff1681565b600073ffffffffffffffffffffffffffffffffffffffff16600160009054906101000a900473ffffffffffffffffffffffffffffffffffffffff1673ffffffffffffffffffffffffffffffffffffffff1614610dbb576040517f08c379a00000000000000000000000000000000000000000000000000000000081526004018080602001828103825260198152602001807f4368616c6c656e676520686173206265656e20736f6c7665640000000000000081525060200191505060405180910390fd5b565b60006020528060005260406000206000915090505481565b600080602083015190506008602084510302610df082611252565b01915050919050565b60006020838390501015610e75576040517f08c379a000000000000000000000000000000000000000000000000000000000815260040180806020018281038252601d8152602001807f56616c756520686173206665776572207468616e20333220627974657300000081525060200191505060405180910390fd5b60005b6020811015610eda57600060f81b848483818110610e9257fe5b9050013560f81c60f81b7effffffffffffffffffffffffffffffffffffffffffffffffffffffffffffff191614610ecd576000915050610ee0565b8080600101915050610e78565b50600190505b92915050565b600080600090505b60018484905003811015610f5557600060f81b848483818110610f0d57fe5b9050013560f81c60f81b7effffffffffffffffffffffffffffffffffffffffffffffffffffffffffffff191614610f48576000915050610f9d565b8080600101915050610eee565b50600160f81b838360018686905003818110610f6d57fe5b9050013560f81c60f81b7effffffffffffffffffffffffffffffffffffffffffffffffffffffffffffff19161490505b92915050565b610fab611f49565b60006020855181610fb857fe5b0614610fc357600080fd5b81610fd657838160000181905250611001565b606060208551016040518181838960046101c2fa819350828201604052505050808260000181905250505b8281602001901515908115158152505061101a84610dd5565b8160400181815250509392505050565b611032611f49565b61103e838360006114a3565b9050600061104e8484600161108a565b146110775761105b611f49565b611067848460016114a3565b905061107382826115b0565b9150505b61108281600261180b565b905092915050565b60008060019050821561115557846020015180156110a9575083602001515b156110d6577fffffffffffffffffffffffffffffffffffffffffffffffffffffffffffffffff9050611154565b60001515856020015115151480156110f657506001151584602001511515145b1561110557600191505061124b565b600115158560200151151514801561112557506000151584602001511515145b15611153577fffffffffffffffffffffffffffffffffffffffffffffffffffffffffffffffff91505061124b565b5b5b836040015185604001511115611171578060010291505061124b565b8460400151846040015111156111ac57807fffffffffffffffffffffffffffffffffffffffffffffffffffffffffffffffff0291505061124b565b6000806000806000896000015151905060208a510194506020895101935060005b8181101561123f57808601519350808501519250828411156111fb578660010297505050505050505061124b565b8383111561123457867fffffffffffffffffffffffffffffffffffffffffffffffffffffffffffffffff0297505050505050505061124b565b6020810190506111cd565b50600096505050505050505b9392505050565b60008082905060018303925060028304831792506004830483179250601083048317925061010083048317925062010000830483179250640100000000830483179250680100000000000000008304831792507001000000000000000000000000000000008304831792506001830192506040517ff8f9cbfae6cc78fbefe7cdc3a1793dfcf4f0e8bbd8cec470b6a28a7a5a3e1efd81527ff5ecf1b3e9debc68e1d9cfabc5997135bfb7a7a3938b7b606b5b4b3f2f1f0ffe60208201527ff6e4ed9ff2d6b458eadcdf97bd91692de2d4da8fd2d0ac50c6ae9a827252361660408201527fc8c0b887b0a8a4489c948c7f847c6125746c645c544c444038302820181008ff60608201527ff7cae577eec2a03cf3bad76fb589591debb2dd67e0aa9834bea6925f6a4a2e0e60808201527fe39ed557db96902cd38ed14fad815115c786af479b7e8324736353433727170760a08201527fc976c13bb96e881cb166a933a55e490d9d56952b8d4e801485467d236242260660c08201527f753a6d1b65325d0c552a4d1345224105391a310b29122104190a11030902010060e082015261010081016040527e818283848586878898a8b8c8d8e8f929395969799a9b9d9e9faaeb6bedeeff7f01000000000000000000000000000000000000000000000000000000000000008082870204818160ff038501510495507f800000000000000000000000000000000000000000000000000000000000000085116101000286019550505050506000600182038216148015611491575060008314155b1561149d578160010191505b50919050565b6114ab611f49565b6114b3611f49565b604051806060016040528060405180604001604052806020815260200160028152508152602001600015158152602001600281525090506000806060600086146115065761150188886115b0565b611511565b61151088886118e4565b5b9450600085604001519050600281029350610100848161152d57fe5b066001901b9250604051806040016040528060208152602001600081525091506020600161010086040102825282602083015260208251018201604052611572611f49565b8281600001819052506000816020019015159081151581525050848160400181815250506115a1878783611b46565b96505050505050509392505050565b6115b8611f49565b6115c0611f49565b6040518060600160405280604051806040016040528060208152602001600081525081526020016000151581526020016000815250905060606000806116088787600061108a565b915086602001518061161b575085602001515b1561174e5786602001518015611632575085602001515b156116da5760018214156116705761165287600001518760000151611c0b565b809250819450505060018560200190151590811515815250506116d5565b7fffffffffffffffffffffffffffffffffffffffffffffffffffffffffffffffff8214156116c8576116aa86600001518860000151611c0b565b809250819450505060008560200190151590811515815250506116d4565b83945050505050611805565b5b611749565b60008212611706576116f9876000015187600001518960400151611d19565b8092508194505050611726565b61171d866000015188600001518860400151611d19565b80925081945050505b8660200151611736576000611739565b60015b8560200190151590811515815250505b6117ed565b60018214156117875761176987600001518760000151611c0b565b809250819450505060008560200190151590811515815250506117ec565b7fffffffffffffffffffffffffffffffffffffffffffffffffffffffffffffffff8214156117df576117c186600001518860000151611c0b565b809250819450505060018560200190151590811515815250506117eb565b83945050505050611805565b5b5b82856000018190525080856040018181525050505050505b92915050565b611813611f49565b606060008084610100039050600080600080896000015151905060206000039150808a5101925060006020820390505b8281101561188f57835196506000811460018114611867576020850351955061186c565b600095505b508987901c96508585901b94508487178452602084039350602081039050611843565b506020830192505b6000835114156118b257602083019250602081039050611897565b602083039650808752868a60000181905250888a60400151038a60400181815250508997505050505050505092915050565b6118ec611f49565b6118f4611f49565b6040518060600160405280604051806040016040528060208152602001600081525081526020016000151581526020016000815250905060008460400151148015611943575060008360400151145b156119515780915050611b40565b6000846040015114156119675782915050611b40565b60008360400151141561197d5783915050611b40565b606060008061198e8787600061108a565b90508660200151806119a1575085602001515b15611aca57866020015180156119b8575085602001515b15611a1f57600081126119e9576119dc876000015187600001518960400151611d19565b8093508194505050611a09565b611a00866000015188600001518860400151611d19565b80935081945050505b6001856020019015159081151581525050611ac5565b6001811415611a5b57611a3a87600001518760000151611c0b565b80935081945050508660200151856020019015159081151581525050611ac4565b7fffffffffffffffffffffffffffffffffffffffffffffffffffffffffffffffff811415611ab757611a9586600001518860000151611c0b565b8093508194505050866020015115856020019015159081151581525050611ac3565b83945050505050611b40565b5b5b611b28565b60008112611af657611ae9876000015187600001518960400151611d19565b8093508194505050611b16565b611b0d866000015188600001518860400151611d19565b80935081945050505b60008560200190151590811515815250505b82856000018190525081856040018181525050505050505b92915050565b611b4e611f49565b600015158360200151151514611b6357600080fd5b6060611b7c856000015185600001518560000151611e62565b905060006020820151905061010060016020845181611b9757fe5b040302611ba382611252565b01905081836000018190525060001515866020015115151480611bdb575085602001518015611bda57506000611bd886611f34565b145b5b611be6576001611be9565b60005b8360200190151590811515815250508083604001818152505050509392505050565b606060006060600059600160000387518751808203828b01828b0184870160208101865b60008082141415611cc057845186821160018114611c71578c8203855260018d14600083141660018114611c665760009d50611c6b565b60019d505b50611ca7565b85518d81840303865260018e148c8214168e820184101760018114611c995760009e50611c9e565b60019e505b50602087039650505b5060208403935060208603955050602081039050611c2f565b506020820191505b600082511415611ce957602089019850602087039650602082019150611cc8565b889a50868b52806040525050505050505050506000611d0783610dd5565b90508281945094505050509250929050565b606060006060596001600003600088518901885189018a5160208601018b515b60008082141415611de65783518c518e5103821160018114611d7e578682018452600187148289141660018114611d735760009750611d78565b600197505b50611dcd565b8451878184010185528781038903831160018114611dbf576000821160008a11178a85141660018114611db45760009950611db9565b600199505b50611dc4565b600198505b50602086039550505b5060208303925060208503945050602081039050611d39565b506000841460018114611dfc5760018252611e03565b6020870196505b50859650836020028c510187526020875101870160405250505050505060006020820151905060016101008681611e3657fe5b0682901c1480611e465750600181145b15611e52578460010194505b8185935093505050935093915050565b606083518351835160405183815282602082015281604082015283606082018560208b0160046101c2fa84606001848184018660208c0160046101c2fa91508481019050838184018560208b0160046101c2fa91508160008114611ec557611ec7565bfe5b5083810190508383606001828560056105465a03fa91508160008114611eec57611eee565bfe5b5083836060015b600160008251141415611f1357602081019050602082039150611ef5565b60208103985081895285856060010160405250505050505050509392505050565b60008151518251016002815106915050919050565b60405180606001604052806060815260200160001515815260200160008152509056fe4e6f7420656e6f75676820626c6f636b73206d696e65642073696e636520636c61696d20776173207375626d6974746564a2646970667358221220d541c131efa26209c2ebce48bf93c34d8758211645fe10adf493e25ae8d8fb3e64736f6c63430007030033",
  "linkReferences": {},
  "deployedLinkReferences": {}
}