{
  "_format": "hh-sol-artifact-1",
  "contractName": "FactoringChallenge",
  "sourceName": "contracts/FactoringChallenge.sol",
  "abi": [
    {
      "inputs": [
        {
          "internalType": "bytes",
          "name": "_product",
          "type": "bytes"
        },
        {
          "internalType": "uint256",
          "name": "_withdrawlDelay",
          "type": "uint256"
        }
      ],
      "stateMutability": "nonpayable",
      "type": "constructor"
    },
    {
      "anonymous": false,
      "inputs": [],
      "name": "ChallengeSolved",
      "type": "event"
    },
    {
      "anonymous": false,
      "inputs": [
        {
          "indexed": false,
          "internalType": "address",
          "name": "donor",
          "type": "address"
        },
        {
          "indexed": false,
          "internalType": "uint256",
          "name": "amount",
          "type": "uint256"
        }
      ],
      "name": "Donation",
      "type": "event"
    },
    {
      "inputs": [
        {
          "internalType": "bytes32",
          "name": "",
          "type": "bytes32"
        }
      ],
      "name": "claims",
      "outputs": [
        {
          "internalType": "uint256",
          "name": "",
          "type": "uint256"
        }
      ],
      "stateMutability": "view",
      "type": "function"
    },
    {
      "inputs": [],
      "name": "donate",
      "outputs": [],
      "stateMutability": "payable",
      "type": "function"
    },
    {
      "inputs": [],
      "name": "product",
      "outputs": [
        {
          "internalType": "bytes",
          "name": "val",
          "type": "bytes"
        },
        {
          "internalType": "bool",
          "name": "neg",
          "type": "bool"
        },
        {
          "internalType": "uint256",
          "name": "bitlen",
          "type": "uint256"
        }
      ],
      "stateMutability": "view",
      "type": "function"
    },
    {
      "inputs": [
        {
          "internalType": "bytes32",
          "name": "_hash",
          "type": "bytes32"
        }
      ],
      "name": "submitClaim",
      "outputs": [],
      "stateMutability": "nonpayable",
      "type": "function"
    },
    {
      "inputs": [],
      "name": "winner",
      "outputs": [
        {
          "internalType": "address payable",
          "name": "",
          "type": "address"
        }
      ],
      "stateMutability": "view",
      "type": "function"
    },
    {
      "inputs": [
        {
          "internalType": "bytes",
          "name": "_factor1",
          "type": "bytes"
        },
        {
          "internalType": "bytes",
          "name": "_factor2",
          "type": "bytes"
        },
        {
          "internalType": "bytes",
          "name": "_salt",
          "type": "bytes"
        }
      ],
      "name": "withdraw",
      "outputs": [],
      "stateMutability": "nonpayable",
      "type": "function"
    },
    {
      "inputs": [],
      "name": "withdrawlDelay",
      "outputs": [
        {
          "internalType": "uint256",
          "name": "",
          "type": "uint256"
        }
      ],
      "stateMutability": "view",
      "type": "function"
    }
  ],
  "bytecode": "0x60806040523480156200001157600080fd5b50604051620024c9380380620024c9833981810160405260408110156200003757600080fd5b81019080805160405193929190846401000000008211156200005857600080fd5b838201915060208201858111156200006f57600080fd5b82518660018202830111640100000000821117156200008d57600080fd5b8083526020830192505050908051906020019080838360005b83811015620000c3578082015181840152602081019050620000a6565b50505050905090810190601f168015620000f15780820380516001836020036101000a031916815260200191505b5060405260200180519060200190929190505050816002600001908051906020019062000120929190620003eb565b5062000137826200016c60201b62000e2a1760201c565b60028001819055506000600260010160006101000a81548160ff02191690831515021790555080600581905550505062000491565b6000806020830151905060086020845103026200018f826200019860201b60201c565b01915050919050565b60008082905060018303925060028304831792506004830483179250601083048317925061010083048317925062010000830483179250640100000000830483179250680100000000000000008304831792507001000000000000000000000000000000008304831792506001830192506040517ff8f9cbfae6cc78fbefe7cdc3a1793dfcf4f0e8bbd8cec470b6a28a7a5a3e1efd81527ff5ecf1b3e9debc68e1d9cfabc5997135bfb7a7a3938b7b606b5b4b3f2f1f0ffe60208201527ff6e4ed9ff2d6b458eadcdf97bd91692de2d4da8fd2d0ac50c6ae9a827252361660408201527fc8c0b887b0a8a4489c948c7f847c6125746c645c544c444038302820181008ff60608201527ff7cae577eec2a03cf3bad76fb589591debb2dd67e0aa9834bea6925f6a4a2e0e60808201527fe39ed557db96902cd38ed14fad815115c786af479b7e8324736353433727170760a08201527fc976c13bb96e881cb166a933a55e490d9d56952b8d4e801485467d236242260660c08201527f753a6d1b65325d0c552a4d1345224105391a310b29122104190a11030902010060e082015261010081016040527e818283848586878898a8b8c8d8e8f929395969799a9b9d9e9faaeb6bedeeff7f01000000000000000000000000000000000000000000000000000000000000008082870204818160ff038501510495507f800000000000000000000000000000000000000000000000000000000000000085116101000286019550505050506000600182038216148015620003d8575060008314155b15620003e5578160010191505b50919050565b828054600181600116156101000203166002900490600052602060002090601f016020900481019282601f106200042e57805160ff19168380011785556200045f565b828001600101855582156200045f579182015b828111156200045e57825182559160200191906001019062000441565b5b5090506200046e919062000472565b5090565b5b808211156200048d57600081600090555060010162000473565b5090565b61202880620004a16000396000f3fe6080604052600436106100705760003560e01c8063d0f487151161004e578063d0f487151461017b578063dfbf53ae146102ab578063ed88c68e146102ec578063eff0f592146102f657610070565b8063272666e4146100755780638b35e14e146100a0578063bf9ce952146100db575b600080fd5b34801561008157600080fd5b5061008a610345565b6040518082815260200191505060405180910390f35b3480156100ac57600080fd5b506100d9600480360360208110156100c357600080fd5b810190808035906020019092919050505061034b565b005b3480156100e757600080fd5b506100f0610429565b60405180806020018415158152602001838152602001828103825285818151815260200191508051906020019080838360005b8381101561013e578082015181840152602081019050610123565b50505050905090810190601f16801561016b5780820380516001836020036101000a031916815260200191505b5094505050505060405180910390f35b34801561018757600080fd5b506102a96004803603606081101561019e57600080fd5b81019080803590602001906401000000008111156101bb57600080fd5b8201836020820111156101cd57600080fd5b803590602001918460018302840111640100000000831117156101ef57600080fd5b90919293919293908035906020019064010000000081111561021057600080fd5b82018360208201111561022257600080fd5b8035906020019184600183028401116401000000008311171561024457600080fd5b90919293919293908035906020019064010000000081111561026557600080fd5b82018360208201111561027757600080fd5b8035906020019184600183028401116401000000008311171561029957600080fd5b90919293919293905050506104e6565b005b3480156102b757600080fd5b506102c0610cd1565b604051808273ffffffffffffffffffffffffffffffffffffffff16815260200191505060405180910390f35b6102f4610cf7565b005b34801561030257600080fd5b5061032f6004803603602081101561031957600080fd5b8101908080359060200190929190505050610e12565b6040518082815260200191505060405180910390f35b60055481565b600073ffffffffffffffffffffffffffffffffffffffff16600160009054906101000a900473ffffffffffffffffffffffffffffffffffffffff1673ffffffffffffffffffffffffffffffffffffffff161461040f576040517f08c379a00000000000000000000000000000000000000000000000000000000081526004018080602001828103825260198152602001807f4368616c6c656e676520686173206265656e20736f6c7665640000000000000081525060200191505060405180910390fd5b436000808381526020019081526020016000208190555050565b6002806000018054600181600116156101000203166002900480601f0160208091040260200160405190810160405280929190818152602001828054600181600116156101000203166002900480156104c35780601f10610498576101008083540402835291602001916104c3565b820191906000526020600020905b8154815290600101906020018083116104a657829003601f168201915b5050505050908060010160009054906101000a900460ff16908060020154905083565b600073ffffffffffffffffffffffffffffffffffffffff16600160009054906101000a900473ffffffffffffffffffffffffffffffffffffffff1673ffffffffffffffffffffffffffffffffffffffff16146105aa576040517f08c379a00000000000000000000000000000000000000000000000000000000081526004018080602001828103825260198152602001807f4368616c6c656e676520686173206265656e20736f6c7665640000000000000081525060200191505060405180910390fd5b60003390506105b98787610e4e565b1561062c576040517f08c379a000000000000000000000000000000000000000000000000000000000815260040180806020018281038252600e8152602001807f4578636573732070616464696e6700000000000000000000000000000000000081525060200191505060405180910390fd5b6106368585610e4e565b156106a9576040517f08c379a000000000000000000000000000000000000000000000000000000000815260040180806020018281038252600e8152602001807f4578636573732070616464696e6700000000000000000000000000000000000081525060200191505060405180910390fd5b6106b38787610f3b565b15610726576040517f08c379a000000000000000000000000000000000000000000000000000000000815260040180806020018281038252600f8152602001807f5472697669616c20666163746f7273000000000000000000000000000000000081525060200191505060405180910390fd5b6107308585610f3b565b156107a3576040517f08c379a000000000000000000000000000000000000000000000000000000000815260040180806020018281038252600f8152602001807f5472697669616c20666163746f7273000000000000000000000000000000000081525060200191505060405180910390fd5b6107ab611f9e565b6107fb88888080601f016020809104026020016040519081016040528093929190818152602001838380828437600081840152601f19601f82011690508083019250505050505050600080610ff8565b9050610805611f9e565b61085587878080601f016020809104026020016040519081016040528093929190818152602001838380828437600081840152601f19601f82011690508083019250505050505050600080610ff8565b90506000338a8a8a8a8a8a604051602001808873ffffffffffffffffffffffffffffffffffffffff16815260200180602001806020018060200184810384528a8a82818152602001925080828437600081840152601f19601f8201169050808301925050508481038352888882818152602001925080828437600081840152601f19601f8201169050808301925050508481038252868682818152602001925080828437600081840152601f19601f8201169050808301925050509a50505050505050505050506040516020818303038152906040528051906020012090506000806000838152602001908152602001600020549050600081116109c1576040517f08c379a000000000000000000000000000000000000000000000000000000000815260040180806020018281038252600f8152602001807f436c61696d206e6f7420666f756e64000000000000000000000000000000000081525060200191505060405180910390fd5b60055481430311610a1d576040517f08c379a0000000000000000000000000000000000000000000000000000000008152600401808060200182810382526031815260200180611fc26031913960400191505060405180910390fd5b6000610b07610a2c868661107f565b6002604051806060016040529081600082018054600181600116156101000203166002900480601f016020809104026020016040519081016040528092919081815260200182805460018160011615610100020316600290048015610ad25780601f10610aa757610100808354040283529160200191610ad2565b820191906000526020600020905b815481529060010190602001808311610ab557829003601f168201915b505050505081526020016001820160009054906101000a900460ff1615151515815260200160028201548152505060016110df565b14610b7a576040517f08c379a000000000000000000000000000000000000000000000000000000000815260040180806020018281038252600f8152602001807f496e76616c696420666163746f7273000000000000000000000000000000000081525060200191505060405180910390fd5b84600160006101000a81548173ffffffffffffffffffffffffffffffffffffffff021916908373ffffffffffffffffffffffffffffffffffffffff1602179055507f9a5748aa1198f8958f1732b51d2e0fc4c37d1db7193face120be13bb0cd1f07160405160405180910390a160008573ffffffffffffffffffffffffffffffffffffffff164760405180600001905060006040518083038185875af1925050503d8060008114610c47576040519150601f19603f3d011682016040523d82523d6000602084013e610c4c565b606091505b5050905080610cc3576040517f08c379a00000000000000000000000000000000000000000000000000000000081526004018080602001828103825260148152602001807f4661696c656420746f2073656e6420457468657200000000000000000000000081525060200191505060405180910390fd5b505050505050505050505050565b600160009054906101000a900473ffffffffffffffffffffffffffffffffffffffff1681565b600073ffffffffffffffffffffffffffffffffffffffff16600160009054906101000a900473ffffffffffffffffffffffffffffffffffffffff1673ffffffffffffffffffffffffffffffffffffffff1614610dbb576040517f08c379a00000000000000000000000000000000000000000000000000000000081526004018080602001828103825260198152602001807f4368616c6c656e676520686173206265656e20736f6c7665640000000000000081525060200191505060405180910390fd5b7f5d8bc849764969eb1bcc6d0a2f55999d0167c1ccec240a4f39cf664ca9c4148e3334604051808373ffffffffffffffffffffffffffffffffffffffff1681526020018281526020019250505060405180910390a1565b60006020528060005260406000206000915090505481565b600080602083015190506008602084510302610e45826112a7565b01915050919050565b60006020838390501015610eca576040517f08c379a000000000000000000000000000000000000000000000000000000000815260040180806020018281038252601d8152602001807f56616c756520686173206665776572207468616e20333220627974657300000081525060200191505060405180910390fd5b60005b6020811015610f2f57600060f81b848483818110610ee757fe5b9050013560f81c60f81b7effffffffffffffffffffffffffffffffffffffffffffffffffffffffffffff191614610f22576000915050610f35565b8080600101915050610ecd565b50600190505b92915050565b600080600090505b60018484905003811015610faa57600060f81b848483818110610f6257fe5b9050013560f81c60f81b7effffffffffffffffffffffffffffffffffffffffffffffffffffffffffffff191614610f9d576000915050610ff2565b8080600101915050610f43565b50600160f81b838360018686905003818110610fc257fe5b9050013560f81c60f81b7effffffffffffffffffffffffffffffffffffffffffffffffffffffffffffff19161490505b92915050565b611000611f9e565b6000602085518161100d57fe5b061461101857600080fd5b8161102b57838160000181905250611056565b606060208551016040518181838960046101c2fa819350828201604052505050808260000181905250505b8281602001901515908115158152505061106f84610e2a565b8160400181815250509392505050565b611087611f9e565b611093838360006114f8565b905060006110a3848460016110df565b146110cc576110b0611f9e565b6110bc848460016114f8565b90506110c88282611605565b9150505b6110d7816002611860565b905092915050565b6000806001905082156111aa57846020015180156110fe575083602001515b1561112b577fffffffffffffffffffffffffffffffffffffffffffffffffffffffffffffffff90506111a9565b600015158560200151151514801561114b57506001151584602001511515145b1561115a5760019150506112a0565b600115158560200151151514801561117a57506000151584602001511515145b156111a8577fffffffffffffffffffffffffffffffffffffffffffffffffffffffffffffffff9150506112a0565b5b5b8360400151856040015111156111c657806001029150506112a0565b84604001518460400151111561120157807fffffffffffffffffffffffffffffffffffffffffffffffffffffffffffffffff029150506112a0565b6000806000806000896000015151905060208a510194506020895101935060005b81811015611294578086015193508085015192508284111561125057866001029750505050505050506112a0565b8383111561128957867fffffffffffffffffffffffffffffffffffffffffffffffffffffffffffffffff029750505050505050506112a0565b602081019050611222565b50600096505050505050505b9392505050565b60008082905060018303925060028304831792506004830483179250601083048317925061010083048317925062010000830483179250640100000000830483179250680100000000000000008304831792507001000000000000000000000000000000008304831792506001830192506040517ff8f9cbfae6cc78fbefe7cdc3a1793dfcf4f0e8bbd8cec470b6a28a7a5a3e1efd81527ff5ecf1b3e9debc68e1d9cfabc5997135bfb7a7a3938b7b606b5b4b3f2f1f0ffe60208201527ff6e4ed9ff2d6b458eadcdf97bd91692de2d4da8fd2d0ac50c6ae9a827252361660408201527fc8c0b887b0a8a4489c948c7f847c6125746c645c544c444038302820181008ff60608201527ff7cae577eec2a03cf3bad76fb589591debb2dd67e0aa9834bea6925f6a4a2e0e60808201527fe39ed557db96902cd38ed14fad815115c786af479b7e8324736353433727170760a08201527fc976c13bb96e881cb166a933a55e490d9d56952b8d4e801485467d236242260660c08201527f753a6d1b65325d0c552a4d1345224105391a310b29122104190a11030902010060e082015261010081016040527e818283848586878898a8b8c8d8e8f929395969799a9b9d9e9faaeb6bedeeff7f01000000000000000000000000000000000000000000000000000000000000008082870204818160ff038501510495507f8000000000000000000000000000000000000000000000000000000000000000851161010002860195505050505060006001820382161480156114e6575060008314155b156114f2578160010191505b50919050565b611500611f9e565b611508611f9e565b6040518060600160405280604051806040016040528060208152602001600281525081526020016000151581526020016002815250905060008060606000861461155b576115568888611605565b611566565b6115658888611939565b5b9450600085604001519050600281029350610100848161158257fe5b066001901b92506040518060400160405280602081526020016000815250915060206001610100860401028252826020830152602082510182016040526115c7611f9e565b8281600001819052506000816020019015159081151581525050848160400181815250506115f6878783611b9b565b96505050505050509392505050565b61160d611f9e565b611615611f9e565b60405180606001604052806040518060400160405280602081526020016000815250815260200160001515815260200160008152509050606060008061165d878760006110df565b9150866020015180611670575085602001515b156117a35786602001518015611687575085602001515b1561172f5760018214156116c5576116a787600001518760000151611c60565b8092508194505050600185602001901515908115158152505061172a565b7fffffffffffffffffffffffffffffffffffffffffffffffffffffffffffffffff82141561171d576116ff86600001518860000151611c60565b80925081945050506000856020019015159081151581525050611729565b8394505050505061185a565b5b61179e565b6000821261175b5761174e876000015187600001518960400151611d6e565b809250819450505061177b565b611772866000015188600001518860400151611d6e565b80925081945050505b866020015161178b57600061178e565b60015b8560200190151590811515815250505b611842565b60018214156117dc576117be87600001518760000151611c60565b80925081945050506000856020019015159081151581525050611841565b7fffffffffffffffffffffffffffffffffffffffffffffffffffffffffffffffff8214156118345761181686600001518860000151611c60565b80925081945050506001856020019015159081151581525050611840565b8394505050505061185a565b5b5b82856000018190525080856040018181525050505050505b92915050565b611868611f9e565b606060008084610100039050600080600080896000015151905060206000039150808a5101925060006020820390505b828110156118e4578351965060008114600181146118bc57602085035195506118c1565b600095505b508987901c96508585901b94508487178452602084039350602081039050611898565b506020830192505b600083511415611907576020830192506020810390506118ec565b602083039650808752868a60000181905250888a60400151038a60400181815250508997505050505050505092915050565b611941611f9e565b611949611f9e565b6040518060600160405280604051806040016040528060208152602001600081525081526020016000151581526020016000815250905060008460400151148015611998575060008360400151145b156119a65780915050611b95565b6000846040015114156119bc5782915050611b95565b6000836040015114156119d25783915050611b95565b60606000806119e3878760006110df565b90508660200151806119f6575085602001515b15611b1f5786602001518015611a0d575085602001515b15611a745760008112611a3e57611a31876000015187600001518960400151611d6e565b8093508194505050611a5e565b611a55866000015188600001518860400151611d6e565b80935081945050505b6001856020019015159081151581525050611b1a565b6001811415611ab057611a8f87600001518760000151611c60565b80935081945050508660200151856020019015159081151581525050611b19565b7fffffffffffffffffffffffffffffffffffffffffffffffffffffffffffffffff811415611b0c57611aea86600001518860000151611c60565b8093508194505050866020015115856020019015159081151581525050611b18565b83945050505050611b95565b5b5b611b7d565b60008112611b4b57611b3e876000015187600001518960400151611d6e565b8093508194505050611b6b565b611b62866000015188600001518860400151611d6e565b80935081945050505b60008560200190151590811515815250505b82856000018190525081856040018181525050505050505b92915050565b611ba3611f9e565b600015158360200151151514611bb857600080fd5b6060611bd1856000015185600001518560000151611eb7565b905060006020820151905061010060016020845181611bec57fe5b040302611bf8826112a7565b01905081836000018190525060001515866020015115151480611c30575085602001518015611c2f57506000611c2d86611f89565b145b5b611c3b576001611c3e565b60005b8360200190151590811515815250508083604001818152505050509392505050565b606060006060600059600160000387518751808203828b01828b0184870160208101865b60008082141415611d1557845186821160018114611cc6578c8203855260018d14600083141660018114611cbb5760009d50611cc0565b60019d505b50611cfc565b85518d81840303865260018e148c8214168e820184101760018114611cee5760009e50611cf3565b60019e505b50602087039650505b5060208403935060208603955050602081039050611c84565b506020820191505b600082511415611d3e57602089019850602087039650602082019150611d1d565b889a50868b52806040525050505050505050506000611d5c83610e2a565b90508281945094505050509250929050565b606060006060596001600003600088518901885189018a5160208601018b515b60008082141415611e3b5783518c518e5103821160018114611dd3578682018452600187148289141660018114611dc85760009750611dcd565b600197505b50611e22565b8451878184010185528781038903831160018114611e14576000821160008a11178a85141660018114611e095760009950611e0e565b600199505b50611e19565b600198505b50602086039550505b5060208303925060208503945050602081039050611d8e565b506000841460018114611e515760018252611e58565b6020870196505b50859650836020028c510187526020875101870160405250505050505060006020820151905060016101008681611e8b57fe5b0682901c1480611e9b5750600181145b15611ea7578460010194505b8185935093505050935093915050565b606083518351835160405183815282602082015281604082015283606082018560208b0160046101c2fa84606001848184018660208c0160046101c2fa91508481019050838184018560208b0160046101c2fa91508160008114611f1a57611f1c565bfe5b5083810190508383606001828560056105465a03fa91508160008114611f4157611f43565bfe5b5083836060015b600160008251141415611f6857602081019050602082039150611f4a565b60208103985081895285856060010160405250505050505050509392505050565b60008151518251016002815106915050919050565b60405180606001604052806060815260200160001515815260200160008152509056fe4e6f7420656e6f75676820626c6f636b73206d696e65642073696e636520636c61696d20776173207375626d6974746564a2646970667358221220825aff5e47546eeefef7bb987c2c4af4c9200139f97117312d45ba76db279b9664736f6c63430007030033",
  "linkReferences": {},
  "deployedLinkReferences": {}
}