{
  "_format": "hh-sol-artifact-1",
  "contractName": "MyContract",
  "sourceName": "contracts/MyContract.sol",
  "abi": [
    {
      "inputs": [
        {
          "internalType": "bytes",
          "name": "_product",
          "type": "bytes"
        },
        {
          "internalType": "uint256",
          "name": "_withdrawlDelay",
          "type": "uint256"
        }
      ],
      "stateMutability": "nonpayable",
      "type": "constructor"
    },
    {
      "anonymous": false,
      "inputs": [],
      "name": "ChallengeSolved",
      "type": "event"
    },
    {
      "inputs": [
        {
          "internalType": "bytes32",
          "name": "",
          "type": "bytes32"
        }
      ],
      "name": "claims",
      "outputs": [
        {
          "internalType": "uint256",
          "name": "",
          "type": "uint256"
        }
      ],
      "stateMutability": "view",
      "type": "function"
    },
    {
      "inputs": [],
      "name": "donate",
      "outputs": [],
      "stateMutability": "payable",
      "type": "function"
    },
    {
      "inputs": [],
      "name": "product",
      "outputs": [
        {
          "internalType": "bytes",
          "name": "val",
          "type": "bytes"
        },
        {
          "internalType": "bool",
          "name": "neg",
          "type": "bool"
        },
        {
          "internalType": "uint256",
          "name": "bitlen",
          "type": "uint256"
        }
      ],
      "stateMutability": "view",
      "type": "function"
    },
    {
      "inputs": [
        {
          "internalType": "bytes32",
          "name": "_hash",
          "type": "bytes32"
        }
      ],
      "name": "submitClaim",
      "outputs": [],
      "stateMutability": "nonpayable",
      "type": "function"
    },
    {
      "inputs": [],
      "name": "winner",
      "outputs": [
        {
          "internalType": "address payable",
          "name": "",
          "type": "address"
        }
      ],
      "stateMutability": "view",
      "type": "function"
    },
    {
      "inputs": [
        {
          "internalType": "bytes",
          "name": "_factor1",
          "type": "bytes"
        },
        {
          "internalType": "bytes",
          "name": "_factor2",
          "type": "bytes"
        }
      ],
      "name": "withdraw",
      "outputs": [],
      "stateMutability": "nonpayable",
      "type": "function"
    },
    {
      "inputs": [],
      "name": "withdrawlDelay",
      "outputs": [
        {
          "internalType": "uint256",
          "name": "",
          "type": "uint256"
        }
      ],
      "stateMutability": "view",
      "type": "function"
    }
  ],
  "bytecode": "0x60806040523480156200001157600080fd5b506040516200207038038062002070833981810160405260408110156200003757600080fd5b81019080805160405193929190846401000000008211156200005857600080fd5b838201915060208201858111156200006f57600080fd5b82518660018202830111640100000000821117156200008d57600080fd5b8083526020830192505050908051906020019080838360005b83811015620000c3578082015181840152602081019050620000a6565b50505050905090810190601f168015620000f15780820380516001836020036101000a031916815260200191505b5060405260200180519060200190929190505050816002600001908051906020019062000120929190620003eb565b5062000137826200016c60201b62000c021760201c565b60028001819055506000600260010160006101000a81548160ff02191690831515021790555080600581905550505062000491565b6000806020830151905060086020845103026200018f826200019860201b60201c565b01915050919050565b60008082905060018303925060028304831792506004830483179250601083048317925061010083048317925062010000830483179250640100000000830483179250680100000000000000008304831792507001000000000000000000000000000000008304831792506001830192506040517ff8f9cbfae6cc78fbefe7cdc3a1793dfcf4f0e8bbd8cec470b6a28a7a5a3e1efd81527ff5ecf1b3e9debc68e1d9cfabc5997135bfb7a7a3938b7b606b5b4b3f2f1f0ffe60208201527ff6e4ed9ff2d6b458eadcdf97bd91692de2d4da8fd2d0ac50c6ae9a827252361660408201527fc8c0b887b0a8a4489c948c7f847c6125746c645c544c444038302820181008ff60608201527ff7cae577eec2a03cf3bad76fb589591debb2dd67e0aa9834bea6925f6a4a2e0e60808201527fe39ed557db96902cd38ed14fad815115c786af479b7e8324736353433727170760a08201527fc976c13bb96e881cb166a933a55e490d9d56952b8d4e801485467d236242260660c08201527f753a6d1b65325d0c552a4d1345224105391a310b29122104190a11030902010060e082015261010081016040527e818283848586878898a8b8c8d8e8f929395969799a9b9d9e9faaeb6bedeeff7f01000000000000000000000000000000000000000000000000000000000000008082870204818160ff038501510495507f800000000000000000000000000000000000000000000000000000000000000085116101000286019550505050506000600182038216148015620003d8575060008314155b15620003e5578160010191505b50919050565b828054600181600116156101000203166002900490600052602060002090601f016020900481019282601f106200042e57805160ff19168380011785556200045f565b828001600101855582156200045f579182015b828111156200045e57825182559160200191906001019062000441565b5b5090506200046e919062000472565b5090565b5b808211156200048d57600081600090555060010162000473565b5090565b611bcf80620004a16000396000f3fe6080604052600436106100705760003560e01c8063bf9ce9521161004e578063bf9ce9521461023a578063dfbf53ae146102da578063ed88c68e1461031b578063eff0f5921461032557610070565b8063272666e41461007557806350fbe2d9146100a05780638b35e14e146101ff575b600080fd5b34801561008157600080fd5b5061008a610374565b6040518082815260200191505060405180910390f35b3480156100ac57600080fd5b506101fd600480360360408110156100c357600080fd5b81019080803590602001906401000000008111156100e057600080fd5b8201836020820111156100f257600080fd5b8035906020019184600183028401116401000000008311171561011457600080fd5b91908080601f016020809104026020016040519081016040528093929190818152602001838380828437600081840152601f19601f8201169050808301925050505050505091929192908035906020019064010000000081111561017757600080fd5b82018360208201111561018957600080fd5b803590602001918460018302840111640100000000831117156101ab57600080fd5b91908080601f016020809104026020016040519081016040528093929190818152602001838380828437600081840152601f19601f82011690508083019250505050505050919291929050505061037a565b005b34801561020b57600080fd5b506102386004803603602081101561022257600080fd5b8101908080359060200190929190505050610963565b005b34801561024657600080fd5b5061024f610a41565b60405180806020018415158152602001838152602001828103825285818151815260200191508051906020019080838360005b8381101561029d578082015181840152602081019050610282565b50505050905090810190601f1680156102ca5780820380516001836020036101000a031916815260200191505b5094505050505060405180910390f35b3480156102e657600080fd5b506102ef610afe565b604051808273ffffffffffffffffffffffffffffffffffffffff16815260200191505060405180910390f35b610323610b24565b005b34801561033157600080fd5b5061035e6004803603602081101561034857600080fd5b8101908080359060200190929190505050610bea565b6040518082815260200191505060405180910390f35b60055481565b600073ffffffffffffffffffffffffffffffffffffffff16600160009054906101000a900473ffffffffffffffffffffffffffffffffffffffff1673ffffffffffffffffffffffffffffffffffffffff161461043e576040517f08c379a00000000000000000000000000000000000000000000000000000000081526004018080602001828103825260198152602001807f4368616c6c656e676520686173206265656e20736f6c7665640000000000000081525060200191505060405180910390fd5b600033905061044b611b45565b83816000018190525061045d84610c02565b816040018181525050600081602001901515908115158152505061047f611b45565b83816000018190525061049184610c02565b81604001818152505060008160200190151590811515815250506000338686604051602001808473ffffffffffffffffffffffffffffffffffffffff1681526020018060200180602001838103835285818151815260200191508051906020019080838360005b838110156105135780820151818401526020810190506104f8565b50505050905090810190601f1680156105405780820380516001836020036101000a031916815260200191505b50838103825284818151815260200191508051906020019080838360005b8381101561057957808201518184015260208101905061055e565b50505050905090810190601f1680156105a65780820380516001836020036101000a031916815260200191505b5095505050505050604051602081830303815290604052805190602001209050600080600083815260200190815260200160002054905060008111610653576040517f08c379a000000000000000000000000000000000000000000000000000000000815260040180806020018281038252600f8152602001807f436c61696d206e6f7420666f756e64000000000000000000000000000000000081525060200191505060405180910390fd5b600554814303116106af576040517f08c379a0000000000000000000000000000000000000000000000000000000008152600401808060200182810382526031815260200180611b696031913960400191505060405180910390fd5b60006107996106be8686610c26565b6002604051806060016040529081600082018054600181600116156101000203166002900480601f0160208091040260200160405190810160405280929190818152602001828054600181600116156101000203166002900480156107645780601f1061073957610100808354040283529160200191610764565b820191906000526020600020905b81548152906001019060200180831161074757829003601f168201915b505050505081526020016001820160009054906101000a900460ff161515151581526020016002820154815250506001610c86565b1461080c576040517f08c379a000000000000000000000000000000000000000000000000000000000815260040180806020018281038252600f8152602001807f496e76616c696420666163746f7273000000000000000000000000000000000081525060200191505060405180910390fd5b84600160006101000a81548173ffffffffffffffffffffffffffffffffffffffff021916908373ffffffffffffffffffffffffffffffffffffffff1602179055507f9a5748aa1198f8958f1732b51d2e0fc4c37d1db7193face120be13bb0cd1f07160405160405180910390a1600060608673ffffffffffffffffffffffffffffffffffffffff164760405180600001905060006040518083038185875af1925050503d80600081146108db576040519150601f19603f3d011682016040523d82523d6000602084013e6108e0565b606091505b509150915081610958576040517f08c379a00000000000000000000000000000000000000000000000000000000081526004018080602001828103825260148152602001807f4661696c656420746f2073656e6420457468657200000000000000000000000081525060200191505060405180910390fd5b505050505050505050565b600073ffffffffffffffffffffffffffffffffffffffff16600160009054906101000a900473ffffffffffffffffffffffffffffffffffffffff1673ffffffffffffffffffffffffffffffffffffffff1614610a27576040517f08c379a00000000000000000000000000000000000000000000000000000000081526004018080602001828103825260198152602001807f4368616c6c656e676520686173206265656e20736f6c7665640000000000000081525060200191505060405180910390fd5b436000808381526020019081526020016000208190555050565b6002806000018054600181600116156101000203166002900480601f016020809104026020016040519081016040528092919081815260200182805460018160011615610100020316600290048015610adb5780601f10610ab057610100808354040283529160200191610adb565b820191906000526020600020905b815481529060010190602001808311610abe57829003601f168201915b5050505050908060010160009054906101000a900460ff16908060020154905083565b600160009054906101000a900473ffffffffffffffffffffffffffffffffffffffff1681565b600073ffffffffffffffffffffffffffffffffffffffff16600160009054906101000a900473ffffffffffffffffffffffffffffffffffffffff1673ffffffffffffffffffffffffffffffffffffffff1614610be8576040517f08c379a00000000000000000000000000000000000000000000000000000000081526004018080602001828103825260198152602001807f4368616c6c656e676520686173206265656e20736f6c7665640000000000000081525060200191505060405180910390fd5b565b60006020528060005260406000206000915090505481565b600080602083015190506008602084510302610c1d82610e4e565b01915050919050565b610c2e611b45565b610c3a8383600061109f565b90506000610c4a84846001610c86565b14610c7357610c57611b45565b610c638484600161109f565b9050610c6f82826111ac565b9150505b610c7e816002611407565b905092915050565b600080600190508215610d515784602001518015610ca5575083602001515b15610cd2577fffffffffffffffffffffffffffffffffffffffffffffffffffffffffffffffff9050610d50565b6000151585602001511515148015610cf257506001151584602001511515145b15610d01576001915050610e47565b6001151585602001511515148015610d2157506000151584602001511515145b15610d4f577fffffffffffffffffffffffffffffffffffffffffffffffffffffffffffffffff915050610e47565b5b5b836040015185604001511115610d6d5780600102915050610e47565b846040015184604001511115610da857807fffffffffffffffffffffffffffffffffffffffffffffffffffffffffffffffff02915050610e47565b6000806000806000896000015151905060208a510194506020895101935060005b81811015610e3b5780860151935080850151925082841115610df75786600102975050505050505050610e47565b83831115610e3057867fffffffffffffffffffffffffffffffffffffffffffffffffffffffffffffffff02975050505050505050610e47565b602081019050610dc9565b50600096505050505050505b9392505050565b60008082905060018303925060028304831792506004830483179250601083048317925061010083048317925062010000830483179250640100000000830483179250680100000000000000008304831792507001000000000000000000000000000000008304831792506001830192506040517ff8f9cbfae6cc78fbefe7cdc3a1793dfcf4f0e8bbd8cec470b6a28a7a5a3e1efd81527ff5ecf1b3e9debc68e1d9cfabc5997135bfb7a7a3938b7b606b5b4b3f2f1f0ffe60208201527ff6e4ed9ff2d6b458eadcdf97bd91692de2d4da8fd2d0ac50c6ae9a827252361660408201527fc8c0b887b0a8a4489c948c7f847c6125746c645c544c444038302820181008ff60608201527ff7cae577eec2a03cf3bad76fb589591debb2dd67e0aa9834bea6925f6a4a2e0e60808201527fe39ed557db96902cd38ed14fad815115c786af479b7e8324736353433727170760a08201527fc976c13bb96e881cb166a933a55e490d9d56952b8d4e801485467d236242260660c08201527f753a6d1b65325d0c552a4d1345224105391a310b29122104190a11030902010060e082015261010081016040527e818283848586878898a8b8c8d8e8f929395969799a9b9d9e9faaeb6bedeeff7f01000000000000000000000000000000000000000000000000000000000000008082870204818160ff038501510495507f80000000000000000000000000000000000000000000000000000000000000008511610100028601955050505050600060018203821614801561108d575060008314155b15611099578160010191505b50919050565b6110a7611b45565b6110af611b45565b60405180606001604052806040518060400160405280602081526020016002815250815260200160001515815260200160028152509050600080606060008614611102576110fd88886111ac565b61110d565b61110c88886114e0565b5b9450600085604001519050600281029350610100848161112957fe5b066001901b925060405180604001604052806020815260200160008152509150602060016101008604010282528260208301526020825101820160405261116e611b45565b82816000018190525060008160200190151590811515815250508481604001818152505061119d878783611742565b96505050505050509392505050565b6111b4611b45565b6111bc611b45565b60405180606001604052806040518060400160405280602081526020016000815250815260200160001515815260200160008152509050606060008061120487876000610c86565b9150866020015180611217575085602001515b1561134a578660200151801561122e575085602001515b156112d657600182141561126c5761124e87600001518760000151611807565b809250819450505060018560200190151590811515815250506112d1565b7fffffffffffffffffffffffffffffffffffffffffffffffffffffffffffffffff8214156112c4576112a686600001518860000151611807565b809250819450505060008560200190151590811515815250506112d0565b83945050505050611401565b5b611345565b60008212611302576112f5876000015187600001518960400151611915565b8092508194505050611322565b611319866000015188600001518860400151611915565b80925081945050505b8660200151611332576000611335565b60015b8560200190151590811515815250505b6113e9565b60018214156113835761136587600001518760000151611807565b809250819450505060008560200190151590811515815250506113e8565b7fffffffffffffffffffffffffffffffffffffffffffffffffffffffffffffffff8214156113db576113bd86600001518860000151611807565b809250819450505060018560200190151590811515815250506113e7565b83945050505050611401565b5b5b82856000018190525080856040018181525050505050505b92915050565b61140f611b45565b606060008084610100039050600080600080896000015151905060206000039150808a5101925060006020820390505b8281101561148b578351965060008114600181146114635760208503519550611468565b600095505b508987901c96508585901b9450848717845260208403935060208103905061143f565b506020830192505b6000835114156114ae57602083019250602081039050611493565b602083039650808752868a60000181905250888a60400151038a60400181815250508997505050505050505092915050565b6114e8611b45565b6114f0611b45565b604051806060016040528060405180604001604052806020815260200160008152508152602001600015158152602001600081525090506000846040015114801561153f575060008360400151145b1561154d578091505061173c565b600084604001511415611563578291505061173c565b600083604001511415611579578391505061173c565b606060008061158a87876000610c86565b905086602001518061159d575085602001515b156116c657866020015180156115b4575085602001515b1561161b57600081126115e5576115d8876000015187600001518960400151611915565b8093508194505050611605565b6115fc866000015188600001518860400151611915565b80935081945050505b60018560200190151590811515815250506116c1565b60018114156116575761163687600001518760000151611807565b809350819450505086602001518560200190151590811515815250506116c0565b7fffffffffffffffffffffffffffffffffffffffffffffffffffffffffffffffff8114156116b35761169186600001518860000151611807565b80935081945050508660200151158560200190151590811515815250506116bf565b8394505050505061173c565b5b5b611724565b600081126116f2576116e5876000015187600001518960400151611915565b8093508194505050611712565b611709866000015188600001518860400151611915565b80935081945050505b60008560200190151590811515815250505b82856000018190525081856040018181525050505050505b92915050565b61174a611b45565b60001515836020015115151461175f57600080fd5b6060611778856000015185600001518560000151611a5e565b90506000602082015190506101006001602084518161179357fe5b04030261179f82610e4e565b019050818360000181905250600015158660200151151514806117d75750856020015180156117d6575060006117d486611b30565b145b5b6117e25760016117e5565b60005b8360200190151590811515815250508083604001818152505050509392505050565b606060006060600059600160000387518751808203828b01828b0184870160208101865b600080821414156118bc5784518682116001811461186d578c8203855260018d146000831416600181146118625760009d50611867565b60019d505b506118a3565b85518d81840303865260018e148c8214168e8201841017600181146118955760009e5061189a565b60019e505b50602087039650505b506020840393506020860395505060208103905061182b565b506020820191505b6000825114156118e5576020890198506020870396506020820191506118c4565b889a50868b5280604052505050505050505050600061190383610c02565b90508281945094505050509250929050565b606060006060596001600003600088518901885189018a5160208601018b515b600080821414156119e25783518c518e510382116001811461197a57868201845260018714828914166001811461196f5760009750611974565b600197505b506119c9565b84518781840101855287810389038311600181146119bb576000821160008a11178a851416600181146119b057600099506119b5565b600199505b506119c0565b600198505b50602086039550505b5060208303925060208503945050602081039050611935565b5060008414600181146119f857600182526119ff565b6020870196505b50859650836020028c510187526020875101870160405250505050505060006020820151905060016101008681611a3257fe5b0682901c1480611a425750600181145b15611a4e578460010194505b8185935093505050935093915050565b606083518351835160405183815282602082015281604082015283606082018560208b0160046101c2fa84606001848184018660208c0160046101c2fa91508481019050838184018560208b0160046101c2fa91508160008114611ac157611ac3565bfe5b5083810190508383606001828560056105465a03fa91508160008114611ae857611aea565bfe5b5083836060015b600160008251141415611b0f57602081019050602082039150611af1565b60208103985081895285856060010160405250505050505050509392505050565b60008151518251016002815106915050919050565b60405180606001604052806060815260200160001515815260200160008152509056fe4e6f7420656e6f75676820626c6f636b73206d696e65642073696e636520636c61696d20776173207375626d6974746564a26469706673582212204effd0ba45f9b69d14e6c05c05bb1be0cf8034d18bf68d7765116328e5777ec064736f6c63430007030033",
  "linkReferences": {},
  "deployedLinkReferences": {}
}