{
  "_format": "hh-sol-artifact-1",
  "contractName": "MyContract",
  "sourceName": "contracts/MyContract.sol",
  "abi": [
    {
      "inputs": [
        {
          "internalType": "uint256",
          "name": "_product",
          "type": "uint256"
        },
        {
          "internalType": "uint256",
          "name": "_withdrawlDelay",
          "type": "uint256"
        }
      ],
      "stateMutability": "nonpayable",
      "type": "constructor"
    },
    {
      "inputs": [
        {
          "internalType": "bytes32",
          "name": "c__0xdff82b0d",
          "type": "bytes32"
        }
      ],
      "name": "c_0xdff82b0d",
      "outputs": [],
      "stateMutability": "pure",
      "type": "function"
    },
    {
      "inputs": [
        {
          "internalType": "bytes32",
          "name": "",
          "type": "bytes32"
        }
      ],
      "name": "claims",
      "outputs": [
        {
          "internalType": "uint256",
          "name": "",
          "type": "uint256"
        }
      ],
      "stateMutability": "view",
      "type": "function"
    },
    {
      "inputs": [],
      "name": "donate",
      "outputs": [],
      "stateMutability": "payable",
      "type": "function"
    },
    {
      "inputs": [],
      "name": "product",
      "outputs": [
        {
          "internalType": "uint256",
          "name": "",
          "type": "uint256"
        }
      ],
      "stateMutability": "view",
      "type": "function"
    },
    {
      "inputs": [
        {
          "internalType": "bytes32",
          "name": "_hash",
          "type": "bytes32"
        }
      ],
      "name": "submitClaim",
      "outputs": [],
      "stateMutability": "nonpayable",
      "type": "function"
    },
    {
      "inputs": [
        {
          "internalType": "uint256",
          "name": "_factor1",
          "type": "uint256"
        },
        {
          "internalType": "uint256",
          "name": "_factor2",
          "type": "uint256"
        }
      ],
      "name": "withdraw",
      "outputs": [],
      "stateMutability": "nonpayable",
      "type": "function"
    },
    {
      "inputs": [],
      "name": "withdrawlDelay",
      "outputs": [
        {
          "internalType": "uint256",
          "name": "",
          "type": "uint256"
        }
      ],
      "stateMutability": "view",
      "type": "function"
    }
  ],
  "bytecode": "0x608060405234801561001057600080fd5b50604051610b94380380610b948339818101604052604081101561003357600080fd5b8101908080519060200190929190805190602001909291905050506100807f8dc68fa7fb268396c9f649673ead130c9f5c9403ecb87e1abbe61bcfc1cce0ba60001b61015d60201b60201c565b6100b27f45a108709a66d2864e18e58175a48318a6e041c054fb178e7aec610e57f109e160001b61015d60201b60201c565b6100e47f82c360f2955ffefc5ec6b09d09850904930735fde88c54bfe1748a68ec0c0caf60001b61015d60201b60201c565b8160018190555061011d7f9359b5835a15bc588b1dd30465e0f929b912ad6e73d55733fbc3172915c39c6060001b61015d60201b60201c565b61014f7f24c555290da18998ccf7bb1b337cdb8ab2b8f34c60dfeb04ad1aa7953f07e23060001b61015d60201b60201c565b806002819055505050610160565b50565b610a258061016f6000396000f3fe6080604052600436106100705760003560e01c80638b35e14e1161004e5780638b35e14e14610120578063bf9ce9521461015b578063ed88c68e14610186578063eff0f5921461019057610070565b8063272666e414610075578063441a3e70146100a0578063444c02b9146100e5575b600080fd5b34801561008157600080fd5b5061008a6101df565b6040518082815260200191505060405180910390f35b3480156100ac57600080fd5b506100e3600480360360408110156100c357600080fd5b8101908080359060200190929190803590602001909291905050506101e5565b005b3480156100f157600080fd5b5061011e6004803603602081101561010857600080fd5b81019080803590602001909291905050506108d1565b005b34801561012c57600080fd5b506101596004803603602081101561014357600080fd5b81019080803590602001909291905050506108d4565b005b34801561016757600080fd5b50610170610972565b6040518082815260200191505060405180910390f35b61018e610978565b005b34801561019c57600080fd5b506101c9600480360360208110156101b357600080fd5b81019080803590602001909291905050506109a6565b6040518082815260200191505060405180910390f35b60025481565b6102117f4375801a1cf28e88e6765885c3f73fabef8eb9490921651170d6fdf6b5d6be2460001b6108d1565b61023d7f2020f7dda388abaffb811befe4fe0de9736df425f9f34b4dee053d21abc5379b60001b6108d1565b6102697ff86127d2da4faa15a7d8ba3f1f929731c588fced696dbe1d78181132234f980d60001b6108d1565b600033905061029a7fb0dde7d8cf7b7a493ee20601d5e1a68686e9cb674c85f0ed71670c3ab174889f60001b6108d1565b6102c67f9bab2a81ca6672e4082a0c7509152e7577e4d0e5b316454dd85f7a49a49c0fd760001b6108d1565b6000338484604051602001808473ffffffffffffffffffffffffffffffffffffffff16815260200183815260200182815260200193505050506040516020818303038152906040528051906020012090506103437f9e288034ce61c52b70e4140034aad5135357a73de7e111fdd310f4ca67004f8360001b6108d1565b61036f7f375e0155923793011c035e9ba30c50c420761bb40931242d4b0f443f3fb0ba1e60001b6108d1565b60008060008381526020019081526020016000205490506103b27f632b31d3ffcb169ce7aa34b2cba29b82982e26348f1a99fdaebafe786cae985860001b6108d1565b6103de7fbe600bf1fe6bc691788e76ead61a9c48f2395bec54fbe77947ede499db72f8f660001b6108d1565b61040a7f07c067f0e267f59c459636b3dff6356e44ebafb57a69a6df53dc1128d8a8a89160001b6108d1565b60008111610480576040517f08c379a000000000000000000000000000000000000000000000000000000000815260040180806020018281038252600f8152602001807f436c61696d206e6f7420666f756e64000000000000000000000000000000000081525060200191505060405180910390fd5b6104ac7f45cdb539e9d59fd55f6580f0c6df8420709bc54a51a876bccf5c6bf1670a5d6d60001b6108d1565b6104d87fb695c6129eeff0aa85d0012f20af78d4de4e1a5fdc1e1a54e160a1502f6ed36760001b6108d1565b6105047fe376cdaed794d8630793cc3099f4a0c4f884ce8bca38140c500cd2e62dd2e9fb60001b6108d1565b6105307fc0c6d7b673466f17640b584c7b5beffaf5a60b6bf53dbe3c06db24db63e2297e60001b6108d1565b6002548143031161058c576040517f08c379a00000000000000000000000000000000000000000000000000000000081526004018080602001828103825260318152602001806109bf6031913960400191505060405180910390fd5b6105b87f68268a8d60a4da114574f2a7bdf703a4e9c6716cf4e78d49592111e45179d59760001b6108d1565b6105e47fc7e8480c68e6eb6c385e5f3f1f42a8a6f012083782f6372063ec4c9aed63776f60001b6108d1565b6106107f7b756669422bfdbbad1b4b404b1030e7b24a219633e8a83c6993823f0ccd9be360001b6108d1565b61063c7fa903e116e83f38e384af9946f34f1100a0c69e8ed882fb5428c6cbf35331d26360001b6108d1565b600154848602146106b5576040517f08c379a000000000000000000000000000000000000000000000000000000000815260040180806020018281038252600f8152602001807f496e76616c696420666163746f7273000000000000000000000000000000000081525060200191505060405180910390fd5b6106e17fc7dd490eb6a77dcca009b4aee583cd67bf6edd535c0ffb2064fbb0e5d2d50c0860001b6108d1565b61070d7ff925524fa85e25289a28eeba35ae3cd8cf231245723e015d7cf1f8b12a9cf48160001b6108d1565b6107397fe230902b6a15b4345ef5e77e53c2da1756d908e0a6297850a4592f7c41985c3860001b6108d1565b600060608473ffffffffffffffffffffffffffffffffffffffff164760405180600001905060006040518083038185875af1925050503d806000811461079b576040519150601f19603f3d011682016040523d82523d6000602084013e6107a0565b606091505b50915091506107d17fc54108eb9efb4310223783a03d387f83ca21d22dfb90cd702b473b6bcdf1b09460001b6108d1565b6107fd7fc701afe1f3c3b7fecd2fa64ab1d141b13961c2f61613ab6a31e24fb37b2dc17560001b6108d1565b6108297f7f3c87df4608948d28d7e32f82de3467d48d0e43b30631b0f87749417043769060001b6108d1565b8161089c576040517f08c379a00000000000000000000000000000000000000000000000000000000081526004018080602001828103825260148152602001807f4661696c656420746f2073656e6420457468657200000000000000000000000081525060200191505060405180910390fd5b6108c87fcd8c5c9f847537696a0a7261bde9238fd080d6cfff8ce0cb0c8997e364b9308160001b6108d1565b50505050505050565b50565b6109007ff211c8a12171089f123ae007f8f325f62d15d18c05fa76c267202b5b0a54992060001b6108d1565b61092c7ffcfc10396e934325477566304e74db63a87051ff2d8a3b2db234057c95a918fa60001b6108d1565b6109587f4ba5bfb03f52ece0759faece03ff07c6c74be34d22aaf26589fb024a49c4c66660001b6108d1565b436000808381526020019081526020016000208190555050565b60015481565b6109a47ff2c8a5c72a8d487ad12bc99359b73b53d575257857fbaa341fa7dbf15b964b5e60001b6108d1565b565b6000602052806000526040600020600091509050548156fe4e6f7420656e6f75676820626c6f636b73206d696e65642073696e636520636c61696d20776173207375626d6974746564a26469706673582212204d922cc7d520721218d0e44e11ff5e957a9ff68b3e9bd5558cac7a63ef03110864736f6c63430007030033",
  "linkReferences": {},
  "deployedLinkReferences": {}
}