{
  "_format": "hh-sol-artifact-1",
  "contractName": "MyContract",
  "sourceName": "contracts/MyContract.sol",
  "abi": [
    {
      "inputs": [
        {
          "internalType": "bytes",
          "name": "_product",
          "type": "bytes"
        },
        {
          "internalType": "uint256",
          "name": "_withdrawlDelay",
          "type": "uint256"
        }
      ],
      "stateMutability": "nonpayable",
      "type": "constructor"
    },
    {
      "inputs": [
        {
          "internalType": "bytes32",
          "name": "c__0xdff82b0d",
          "type": "bytes32"
        }
      ],
      "name": "c_0xdff82b0d",
      "outputs": [],
      "stateMutability": "pure",
      "type": "function"
    },
    {
      "inputs": [
        {
          "internalType": "bytes32",
          "name": "",
          "type": "bytes32"
        }
      ],
      "name": "claims",
      "outputs": [
        {
          "internalType": "uint256",
          "name": "",
          "type": "uint256"
        }
      ],
      "stateMutability": "view",
      "type": "function"
    },
    {
      "inputs": [],
      "name": "donate",
      "outputs": [],
      "stateMutability": "payable",
      "type": "function"
    },
    {
      "inputs": [],
      "name": "product",
      "outputs": [
        {
          "internalType": "bytes",
          "name": "val",
          "type": "bytes"
        },
        {
          "internalType": "bool",
          "name": "neg",
          "type": "bool"
        },
        {
          "internalType": "uint256",
          "name": "bitlen",
          "type": "uint256"
        }
      ],
      "stateMutability": "view",
      "type": "function"
    },
    {
      "inputs": [
        {
          "internalType": "bytes32",
          "name": "_hash",
          "type": "bytes32"
        }
      ],
      "name": "submitClaim",
      "outputs": [],
      "stateMutability": "nonpayable",
      "type": "function"
    },
    {
      "inputs": [
        {
          "internalType": "bytes",
          "name": "_factor1",
          "type": "bytes"
        },
        {
          "internalType": "bytes",
          "name": "_factor2",
          "type": "bytes"
        }
      ],
      "name": "withdraw",
      "outputs": [],
      "stateMutability": "nonpayable",
      "type": "function"
    },
    {
      "inputs": [],
      "name": "withdrawlDelay",
      "outputs": [
        {
          "internalType": "uint256",
          "name": "",
          "type": "uint256"
        }
      ],
      "stateMutability": "view",
      "type": "function"
    }
  ],
  "bytecode": "0x60806040523480156200001157600080fd5b506040516200620238038062006202833981810160405260408110156200003757600080fd5b81019080805160405193929190846401000000008211156200005857600080fd5b838201915060208201858111156200006f57600080fd5b82518660018202830111640100000000821117156200008d57600080fd5b8083526020830192505050908051906020019080838360005b83811015620000c3578082015181840152602081019050620000a6565b50505050905090810190601f168015620000f15780820380516001836020036101000a031916815260200191505b5060405260200180519060200190929190505050620001397f9443e352db47db763392fe2300935ac289c850ee43f8c03d4785daf90efe8b1160001b6200034060201b60201c565b6200016d7fca6fe22811512b1773664f5256ef433ae699c350135364f6739146bf783a976160001b6200034060201b60201c565b620001a17f34552d76610b20143f1b074cfa979feefbc11881af0df276104a9452c39fc2c060001b6200034060201b60201c565b8160016000019080519060200190620001bc929190620008a5565b50620001f17f8da1e54842091aac2639e4eafa758b733de8c1cd08997e9b25b8634b54b7191b60001b6200034060201b60201c565b620002257ff7b43d899d616fc302fbdaf0996d268ee8dc2760d2f990f56337c56f6b533ecf60001b6200034060201b60201c565b6200023b826200034360201b620010dc1760201c565b600160020181905550620002787ffac312dda328967e43999b952a0e80fa0c44e9365ee6f629dffc6bdc4887122560001b6200034060201b60201c565b620002ac7f0c68874a7b886f28d1c9aa9583bd8ac19ebdb025a149091e2748f6c2db075df060001b6200034060201b60201c565b60006001800160006101000a81548160ff021916908315150217905550620002fd7f592d3f8ef3a3a8311239feb2ab541b2d8a80e4f8f566450aad6f9cefb6241a6c60001b6200034060201b60201c565b620003317f266c1cc185ff0c8c796c9fa3cf0d083478c851cde3b83c1be53c7491f26e8e5560001b6200034060201b60201c565b8060048190555050506200094b565b50565b6000620003797fba6dcfc282bae04c1767ccd5a46fa855f0247968a71a07fe98939212de6833d860001b620004a860201b60201c565b620003ad7fadec3aa1a92fb5da31632264557c5527f8b8473a9bba6b1162ffa7b247cfe84f60001b620004a860201b60201c565b620003e17f20b33a4ceae0c76db5cfe57589bdc076206155706bf6e63aff3be20234b74ce060001b620004a860201b60201c565b6000620004177f8fe2a9be16d5390731b561b9870a6813e1c97c6a9243e44686b2668a9e4e957b60001b620004a860201b60201c565b60208301519050620004527f95cfbdf4733cb34435eaf2c42983e28309d2497ea560490c562caafe415cee1760001b620004a860201b60201c565b620004867ffeea855e8ddc3918ddf37280d23e3a7df86d4884667b3220e98198e2e3d9e98260001b620004a860201b60201c565b60086020845103026200049f82620004ab60201b60201c565b01915050919050565b50565b6000620004e17f757fdf38a9198d906c9f77f524e60a2cc2dd23c72823707099e888f82868f62460001b620004a860201b60201c565b620005157f442b6e4036f4b2b414986af634e2e832890280f6f7e935ae598f0eacfd80ddc260001b620004a860201b60201c565b620005497fb177d789e25b7a67d38f63578663b6ce4eb8bc56749d5a5e6288c1ec972b96ec60001b620004a860201b60201c565b6000829050620005827fe5b181968385ffebb4c7268be2c778f81495541d6c48ebf758f9d253ee28613d60001b620004a860201b60201c565b60018303925060028304831792506004830483179250601083048317925061010083048317925062010000830483179250640100000000830483179250680100000000000000008304831792507001000000000000000000000000000000008304831792506001830192506040517ff8f9cbfae6cc78fbefe7cdc3a1793dfcf4f0e8bbd8cec470b6a28a7a5a3e1efd81527ff5ecf1b3e9debc68e1d9cfabc5997135bfb7a7a3938b7b606b5b4b3f2f1f0ffe60208201527ff6e4ed9ff2d6b458eadcdf97bd91692de2d4da8fd2d0ac50c6ae9a827252361660408201527fc8c0b887b0a8a4489c948c7f847c6125746c645c544c444038302820181008ff60608201527ff7cae577eec2a03cf3bad76fb589591debb2dd67e0aa9834bea6925f6a4a2e0e60808201527fe39ed557db96902cd38ed14fad815115c786af479b7e8324736353433727170760a08201527fc976c13bb96e881cb166a933a55e490d9d56952b8d4e801485467d236242260660c08201527f753a6d1b65325d0c552a4d1345224105391a310b29122104190a11030902010060e082015261010081016040527e818283848586878898a8b8c8d8e8f929395969799a9b9d9e9faaeb6bedeeff7f01000000000000000000000000000000000000000000000000000000000000008082870204818160ff038501510495507f80000000000000000000000000000000000000000000000000000000000000008511610100028601955050505050620007d97f47e5fb5c88ba5b375a135b89a8c0a68873e392c09922b272d8966aba5c3f7c3860001b620004a860201b60201c565b6200080d7fbc9ba0fb27ebf2a0e72e6762071591abc31bc5ea7562d12484e6a64735613e8b60001b620004a860201b60201c565b600060018203821614801562000824575060008314155b156200086a576200085e7f5ab38126649253ca188d33563fa1d6544a328defb34d7b0cbc18f3d4c88b870560001b620004a860201b60201c565b8160010191506200089f565b6200089e7fe21f756a37e92cd4ac7c74e532d9bf79eeac155045c78dda9f12d37e2de24b6d60001b620004a860201b60201c565b5b50919050565b828054600181600116156101000203166002900490600052602060002090601f016020900481019282601f10620008e857805160ff191683800117855562000919565b8280016001018555821562000919579182015b8281111562000918578251825591602001919060010190620008fb565b5b5090506200092891906200092c565b5090565b5b80821115620009475760008160009055506001016200092d565b5090565b6158a7806200095b6000396000f3fe6080604052600436106100705760003560e01c80638b35e14e1161004e5780638b35e14e1461023a578063bf9ce95214610275578063ed88c68e14610315578063eff0f5921461031f57610070565b8063272666e414610075578063444c02b9146100a057806350fbe2d9146100db575b600080fd5b34801561008157600080fd5b5061008a61036e565b6040518082815260200191505060405180910390f35b3480156100ac57600080fd5b506100d9600480360360208110156100c357600080fd5b8101908080359060200190929190505050610374565b005b3480156100e757600080fd5b50610238600480360360408110156100fe57600080fd5b810190808035906020019064010000000081111561011b57600080fd5b82018360208201111561012d57600080fd5b8035906020019184600183028401116401000000008311171561014f57600080fd5b91908080601f016020809104026020016040519081016040528093929190818152602001838380828437600081840152601f19601f820116905080830192505050505050509192919290803590602001906401000000008111156101b257600080fd5b8201836020820111156101c457600080fd5b803590602001918460018302840111640100000000831117156101e657600080fd5b91908080601f016020809104026020016040519081016040528093929190818152602001838380828437600081840152601f19601f820116905080830192505050505050509192919290505050610377565b005b34801561024657600080fd5b506102736004803603602081101561025d57600080fd5b8101908080359060200190929190505050610f3b565b005b34801561028157600080fd5b5061028a610fd9565b60405180806020018415158152602001838152602001828103825285818151815260200191508051906020019080838360005b838110156102d85780820151818401526020810190506102bd565b50505050905090810190601f1680156103055780820380516001836020036101000a031916815260200191505b5094505050505060405180910390f35b61031d611096565b005b34801561032b57600080fd5b506103586004803603602081101561034257600080fd5b81019080803590602001909291905050506110c4565b6040518082815260200191505060405180910390f35b60045481565b50565b6103a37fc5a2ad2222372f184aa57799ab7c1d86c833e9a9da1b01c980d0ad230b97430360001b610374565b6103cf7fffac069d916b47a2c08f103744513d435ae5de66343e644241a5d304a969f0e760001b610374565b6103fb7f617c2869c37a4f427a9d60ef8fc5cfcaf8c54cacfcc823fc87119457fefc8f3b60001b610374565b600033905061042c7fe2af94682e6505c3fef836eb3257238d45142505f33ca68343e771e98289a0c660001b610374565b6104587fc645f61f484d51567cf498161f03b9af4f4862c5cffa5fde858678340405705160001b610374565b61046061581d565b61048c7f0e0404fe0946e8b25a7ab3b58c0141560c9a83f2ba5fd341daccc3d32aee942360001b610374565b6104b87f18e0b872f43dc693d768468246b434ab060f91fb60adf3a4c6586ef7162d55f560001b610374565b8381600001819052506104ed7f65aa739125a8a64512f8446cbd896054466e76ecc4875ddbfd8ccc45cf6f9c7160001b610374565b6105197fad40cde5b78b17cb6cb020a4c22dff7c07fc68caa1e910e673aca35826d638f860001b610374565b610522846110dc565b8160400181815250506105577fd4996e77fab040278ee46bebb82f8119926045d31dc2aa46b9f95879a14b17ba60001b610374565b6105837f23f6cfece8f3eb083423d2d99fd048e42e2892f89d38fd01bd7d89d2ebf2449d60001b610374565b60008160200190151590811515815250506105c07f1ba70a09c335e0f8b09cee406aba14be452f1fbd7eedc7231d2da1945c2f52c860001b610374565b6105ec7fe5518d55fe633b054003bcf1000e3432ca80c0360dcf304c9f5503edde89932560001b610374565b6105f461581d565b6106207f4499dd2eee48a17ff4d00a58f1aba22b878714f0e54e2123df804967ed8fede160001b610374565b61064c7f82db5e55186891a53f37af3d1d0d469d55d1a783bba61e5ffc0d1e137b58c5a160001b610374565b8381600001819052506106817f79e59762195bdecd68b8f885517bf49db51b7924b76cbb7896ee19b3805841cf60001b610374565b6106ad7fb79271814a198411759f3d8dc3bca626f0ea0f1c6446ed2673e9df7f907c82c160001b610374565b6106b6846110dc565b8160400181815250506106eb7fdce8fb094d9845a0020fea9978bcfec0f26e3ab3109b766f13dce774a94359dd60001b610374565b6107177f7469fd937ce014f65d14b9df1b4ab9f6a10c4c7014b700d9e4fb71e820bc14ab60001b610374565b60008160200190151590811515815250506107547f5c658ee2887fca01a8fae494e2965cdaeeb0f36d028e402ce662495c7cb4346160001b610374565b6107807f6421911f1cf32bfff068e687b92725c93c5970295df356c1f3746e30b9d3922d60001b610374565b6000338686604051602001808473ffffffffffffffffffffffffffffffffffffffff1681526020018060200180602001838103835285818151815260200191508051906020019080838360005b838110156107e85780820151818401526020810190506107cd565b50505050905090810190601f1680156108155780820380516001836020036101000a031916815260200191505b50838103825284818151815260200191508051906020019080838360005b8381101561084e578082015181840152602081019050610833565b50505050905090810190601f16801561087b5780820380516001836020036101000a031916815260200191505b50955050505050506040516020818303038152906040528051906020012090506108c77f9ce76d1b642264fde5eaaedee1bec4898132a77480af47e73ef8b59c65f7a4af60001b610374565b6108f37f1b94e5a38aab0d800dea16fbfe9a2e99c375bfafa9e2e7f8e8a3205c99bfd3fa60001b610374565b60008060008381526020019081526020016000205490506109367ff2a173b1aa59097261d83f88ab5ea538a7d1411b2be58dd5ccedd32316406a3360001b610374565b6109627fabb61b82d5af8d71051a73094c2f17b45ee27e16251b6d356c515b55755f8fd160001b610374565b61098e7fd44d132c51bd0561b9bad9ce83331b345c5fb9aaf414879e6f91e2f3cdb1e21660001b610374565b60008111610a04576040517f08c379a000000000000000000000000000000000000000000000000000000000815260040180806020018281038252600f8152602001807f436c61696d206e6f7420666f756e64000000000000000000000000000000000081525060200191505060405180910390fd5b610a307fdbe2d77a4c530525a6fe446b38d7a3bc6357733d197956c3d108a10431dad22c60001b610374565b610a5c7f86d68a91c8760e58e8b7e09d04d1572e56e11f176b0ffccf5f50419a52f3e34b60001b610374565b610a887f83b03fd1ebf0f0ba4be1699f82c66b172eb08b3385d781b178993a20c146f3fb60001b610374565b610ab47f7c69b79c88c0a5a403f3c3f3a98ffc354e04757ab580630a34fd8fef0b80911560001b610374565b60045481430311610b10576040517f08c379a00000000000000000000000000000000000000000000000000000000081526004018080602001828103825260318152602001806158416031913960400191505060405180910390fd5b610b3c7f235d6f57436704250bc706ba14702df14e916e8fcf808a31c1cbb2c39d6ca4db60001b610374565b610b687f67b92c16cdabf3d40968530c83f84d098ac9c4f96b0ec598523c7294b15dc45560001b610374565b610b947f94b35da62eff787e671af9ad5685a4bb793f47043e67f7bbd98131219e96282360001b610374565b610bc07f0842821dd16e129c5e91704ed36bbe99630b9cf8b8aa683996d6117727934c3a60001b610374565b6000610caa610bcf8686611209565b6001604051806060016040529081600082018054600181600116156101000203166002900480601f016020809104026020016040519081016040528092919081815260200182805460018160011615610100020316600290048015610c755780601f10610c4a57610100808354040283529160200191610c75565b820191906000526020600020905b815481529060010190602001808311610c5857829003601f168201915b505050505081526020016001820160009054906101000a900460ff1615151515815260200160028201548152505060016114aa565b14610d1d576040517f08c379a000000000000000000000000000000000000000000000000000000000815260040180806020018281038252600f8152602001807f496e76616c696420666163746f7273000000000000000000000000000000000081525060200191505060405180910390fd5b610d497fd34fbe395976b2756287dc770d1de4eac8650c89494aabb40d5f7600e5fd63f360001b610374565b610d757fae92a642e751b58eba23c5d43e7caa9687b2a06f7308a7d585134ce17c44984160001b610374565b610da17f7c608fadb0b1eb2464101bf8c239e142b2dd467cf3bc0d0116ddc9637ebc9d9c60001b610374565b600060608673ffffffffffffffffffffffffffffffffffffffff164760405180600001905060006040518083038185875af1925050503d8060008114610e03576040519150601f19603f3d011682016040523d82523d6000602084013e610e08565b606091505b5091509150610e397f80e5d1fcc6aebeb09e346935df8419eac0a439d61bd9a7ff9d125227764ecbef60001b610374565b610e657f0caffafd275554fc90fdf52a82ff76684035d3c9d513bd86b7c029952c0daa3160001b610374565b610e917f029b886be370d30c4856339dc10a777290e6cb4d79cd884f3be2a0e1006f03fe60001b610374565b81610f04576040517f08c379a00000000000000000000000000000000000000000000000000000000081526004018080602001828103825260148152602001807f4661696c656420746f2073656e6420457468657200000000000000000000000081525060200191505060405180910390fd5b610f307f19b64f3de66db19086b09e0764c68be1afbf71ddc6b2a1a64de60fda45a87cae60001b610374565b505050505050505050565b610f677f5d88ab3290650ae4d2e6e17fcaf96fe46500f585566d56a98f5d0fe170a1e1ec60001b610374565b610f937fcab573d8db6b4423605329217a70774e2fe59bc54afde608c572e42733d5c77460001b610374565b610fbf7f6083daab56dbbbedc98aca6e41bfebce6090722d1237ab1ded04b4b0093f939f60001b610374565b436000808381526020019081526020016000208190555050565b6001806000018054600181600116156101000203166002900480601f0160208091040260200160405190810160405280929190818152602001828054600181600116156101000203166002900480156110735780601f1061104857610100808354040283529160200191611073565b820191906000526020600020905b81548152906001019060200180831161105657829003601f168201915b5050505050908060010160009054906101000a900460ff16908060020154905083565b6110c27fbafc29ef6521fb7a268f3912bcb813166d25675dbf2d90fa8f1244aabb56e96d60001b610374565b565b60006020528060005260406000206000915090505481565b600061110a7fba6dcfc282bae04c1767ccd5a46fa855f0247968a71a07fe98939212de6833d860001b61201a565b6111367fadec3aa1a92fb5da31632264557c5527f8b8473a9bba6b1162ffa7b247cfe84f60001b61201a565b6111627f20b33a4ceae0c76db5cfe57589bdc076206155706bf6e63aff3be20234b74ce060001b61201a565b60006111907f8fe2a9be16d5390731b561b9870a6813e1c97c6a9243e44686b2668a9e4e957b60001b61201a565b602083015190506111c37f95cfbdf4733cb34435eaf2c42983e28309d2497ea560490c562caafe415cee1760001b61201a565b6111ef7ffeea855e8ddc3918ddf37280d23e3a7df86d4884667b3220e98198e2e3d9e98260001b61201a565b60086020845103026112008261201d565b01915050919050565b61121161581d565b61123d7fde2231e7ebd9be31d4167b19eedebb9e9bfadf397aab7c56a42509e9c46555c060001b61201a565b6112697fafc8da618a46a7877e205dc5104a342b51169a3a1c3f8a6911a5a0d4efd6d9d260001b61201a565b6112957fec3e1fdb2b7c7c18fbf2745407b5103b55c2013b4a0346ea628b0f7df565a99460001b61201a565b6112a1838360006123d4565b90506112cf7fe1824fa205e7235d0caef83feeb26356aa09d28ec1c385fba3bb998f47287b8060001b61201a565b6112fb7f8adf0602a595b5f05d219bd06634b47ee936c11ffdd8e9c5a8ef34860c977c3860001b61201a565b6000611309848460016114aa565b146114125761133a7f12d3e4ed8f5af65eafca0d601266f3dbd39ab4dcd4216dd79223116e37a6c7e560001b61201a565b6113667f30d260c49817e9e00b7b030758a154ca4423d77b76145d5154c1873564dea66e60001b61201a565b6113927f7cdd24689b3691dfafb71bec2465b1d4a29a7f97807014ac15754dcbbce5c61c60001b61201a565b61139a61581d565b6113a6848460016123d4565b90506113d47f2fa386eeaacb6b3e97910617a81d807b0c1219b803ce86dcde2e6eb73100cea460001b61201a565b6114007fcd9a546a074586448640591fdaed80fcca8c121c12f106c8427ba934e4bc2f7960001b61201a565b61140a82826129de565b91505061143f565b61143e7f4e2696a6ced7f7107eef723454bd11b47b30d82292e38371bb2ceafe847ba9e860001b61201a565b5b61146b7f37101246c661be6ec637c297aaf1fcf09348dfa9c84b4df982c71bcbf4d366e360001b61201a565b6114977fea3badf8f71aae5922cd9dc55d2ea470bab67d152e3f6bdbae7b387a4b6cf6ae60001b61201a565b6114a281600261370e565b905092915050565b60006114d87ff13884a088f7805a21a78563e8de4324e1a1172f54986a4ee9e7077ede88c3ea60001b61201a565b6115047f3a03a98d421051a9f99fdc3846f1e374212a7957663b005ce22660036a3ca77760001b61201a565b6115307fbb0e41391a44da2e6068ec13ee15356c3e8aeeeecc0626ab15880b60e2a1354160001b61201a565b6000600190506115627f313c8fe700ecd24208baaa8b03cdf2d4ed5e5104ce9e83fb862384250f45eaed60001b61201a565b61158e7f293046bd1eeebe77b0bf6b7fafd938137ab91a09765c8ab54ea7f5e299cc443160001b61201a565b82156118be576115c07fde6e5c51b5bcdcece26afc164615bb22becfe977eb5723527876c8056c59907460001b61201a565b6115ec7f73d5b1b839ae16be0caffe8f3dfcb55bb5ed828b418776afc6358fb03690945c60001b61201a565b6116187fdfeeee1e80ec76f77982e711b502754dc9f85086e4604923096d80cbe57a961e60001b61201a565b8460200151801561162a575083602001515b156116af5761165b7fdd37cb7ed158db431c7b2de528b200dc44f7d834273de7082c3d90cc440a9f2c60001b61201a565b6116877f9e4808dc2dfb9aa65826611b31303f396b6ce40255e84a21e2a979c7a83506e660001b61201a565b7fffffffffffffffffffffffffffffffffffffffffffffffffffffffffffffffff90506118b9565b6116db7f60d853cd2fdfda176283467c6e84a93be6089d853d0b31f13c6569f31ce6524a60001b61201a565b6117077f7ee4f98cef4c55969aa392e3bf090f61a6a4c4e65e1d33dfc09874c27d4d1e7b60001b61201a565b600015158560200151151514801561172757506001151584602001511515145b1561178e576117587f92df2e40ff1c022ae5d0868db170b2d3db59e63c2e2076c5c2caf05ea252b35a60001b61201a565b6117847fdaba5943dda80e81625319d950a98054ceb090fbce743ebe0367ecfeefe61a2a60001b61201a565b6001915050612013565b6117ba7f5cc306ecdcd78e8ebfbbae7b4121e493727ffb51e995de1ca5645ff1eca59c1560001b61201a565b6117e67f2acd9c2f384b71416023cd218a79e1a9fe1f794de16cfda4bf96cbbf10dc81d360001b61201a565b600115158560200151151514801561180657506000151584602001511515145b1561188c576118377fc6c63757f3419b127def3d0a324aef93080f7b3cec3b494c7b01faf94aa2718760001b61201a565b6118637f2d695a3b46be225044973a12dc0e68953ef118985f9fe307c9239d505dd578b660001b61201a565b7fffffffffffffffffffffffffffffffffffffffffffffffffffffffffffffffff915050612013565b6118b87fc25798aff3dc51c4e2902527ec174f52c805d9ef5a0e1293e75d1b45453512ff60001b61201a565b5b6118eb565b6118ea7f759085da9072d39769a08f5f3cde8263b84a8b6ddaa2cbd79dfc640b254771bf60001b61201a565b5b6119177fa15edfcd0314a6a57874848c7338e6b418f4e45b9b9efb10e768d1d51a3e03b460001b61201a565b6119437f7ed5bb87603fabd11f127fd45a3044adeb724effbe4ff12c0abaf6470735be2b60001b61201a565b8360400151856040015111156119b75761197f7fac0729702944a12357943752933ca6678142727468ad5012e820c97e0d42262c60001b61201a565b6119ab7ffff78f8e6a34d16200beb9c197755acefb411c64248427539f5614506f3272b760001b61201a565b80600102915050612013565b6119e37f6b5f1722152be8e531a72a9285ca9b4d771a99306ee5a33b9371028f877bba2260001b61201a565b611a0f7f4dd821e59c67ad99e1c38f107c644a8f2d993bf979b999bfab9fa1cf743ceb7d60001b61201a565b611a3b7ff7bea4cd6077787dd8423174106ae3b72b1944f92025a189ddbfb3621f7ea4d060001b61201a565b846040015184604001511115611ace57611a777f0369ba572c51e12a6acf443b504e69813a2eb8edf59d0a21f55d2e13780efad260001b61201a565b611aa37fb274b533d58968e089ffab94f5773ab9be6911be9470fc745d1d9514fcc7e18660001b61201a565b807fffffffffffffffffffffffffffffffffffffffffffffffffffffffffffffffff02915050612013565b611afa7f861bf64eaadc8b396a99fb9852ababab2423bbbe8a78e7be388fee57bc9ffe8660001b61201a565b611b267f892203dc61e359c9c82b5a248a1bc2cc3181dd4d1a83cc85d55f180df8c5b5d560001b61201a565b611b527f556ba8d957e83175eb32125eccf407d527e6cfb0a149d82d042bf2906674549f60001b61201a565b6000611b807f84a4dfa5842b3f136a19705bb36f01a468c6356c76a933a4528ff83b3b20d55a60001b61201a565b611bac7f2c896bf2a43337772d075242f3714083edaff170a84fbc9341894f995304ebfe60001b61201a565b6000611bda7fba5bd303b7e98f286514c89a9960bf38a2de807d3f86d8ca3d68a117c5e91f9860001b61201a565b611c067fc662a7dff7f12aca8c2b7a38a7c12ca3ba3acd1a8cd6f1296fea708223fcb51260001b61201a565b6000611c347f54688292c1e528a23ca1e6e64740e3bc1558ede6443afa7d2b22e1e83025d18c60001b61201a565b611c607fea681d5115eb80a30b98713aa45c28d8beb9a7a3e8adeac2669870b86c3c2c5160001b61201a565b6000611c8e7f39d431355c764d8655e4020c98d017bd4a9f2ccc4150a2b4fd0072748742d72a60001b61201a565b611cba7f33958e03a27b80144d240d3a8bcc4981d22c8d11e4ef347f8dddac14833cff3660001b61201a565b60008960000151519050611cf07f80a2a77d0d9a26243c27903fe4aa6a9e629c2c7a8dc19d86c2ed0da85161a77e60001b61201a565b60208a5101945060208951019350611d2a7fd917c5a42af57f91fdfd79bc75639de8c0e694ad51c75d99e0e282dc4731a72060001b61201a565b611d567f58885ed22c7b6a73c65507cca767af93050c7c14b0fcb1c814549b5215d5e4e260001b61201a565b60005b81811015611faf57611d8d7f11c7f7d45d70d7be645a417f88679c04c40a3a7a72e3b1211ffb5493eba0b81660001b61201a565b808601519350808501519250611dc57fcf9536b2f5d5fc1f8c3a207e9f50714293339d63703cd7111a2fb1f2263bbf8360001b61201a565b611df17f8a24158c66a6aba82182d8b58ac344fbd8abe5346e241bc15b96a630428a25d560001b61201a565b82841115611e6357611e257f660d81154e42159871f940e23cd8369d3512abd9eaf53175ea89b1086c0be17760001b61201a565b611e517f6103706e77433584543ddd2d3d4e494d15bc03d6cb95bf3ba0dff620e20db7c060001b61201a565b86600102975050505050505050612013565b611e8f7fd90b78ac736fec01915e5df6750d4fd7347de760c50ba443c453a11e09d0121760001b61201a565b611ebb7f4efc5a3fe5f23aa21da773a70bc864956fb0024c10ff83ea70ca282839e519d460001b61201a565b611ee77ff2f45fc92ae2596cd6da1aabd6fbbb942717eb18d9dffc23d5e90360d58576bb60001b61201a565b83831115611f7857611f1b7f2b20dfd9db1d757bc13ce11d51ff1e091c555e0b6c2e9fecf1c27c1f2b2508db60001b61201a565b611f477fc09c620c7cdbfac749dc78b7c045ca730f097422ed7617b02b51b74f5dec1a9060001b61201a565b867fffffffffffffffffffffffffffffffffffffffffffffffffffffffffffffffff02975050505050505050612013565b611fa47f0f4d724669b6f71371131ad542e0eb597d5c3fb12571f3d13c8f4063dcb60bdd60001b61201a565b602081019050611d59565b50611fdc7fed107557d75ea1da07d3dd497e7e3d5022bd24ba60c586d293f22e71cac2e59660001b61201a565b6120087f763716f992ee925d7896a92cc426bbdf0a58cbba1ee8a192374ad0bb258befb460001b61201a565b600096505050505050505b9392505050565b50565b600061204b7f757fdf38a9198d906c9f77f524e60a2cc2dd23c72823707099e888f82868f62460001b61201a565b6120777f442b6e4036f4b2b414986af634e2e832890280f6f7e935ae598f0eacfd80ddc260001b61201a565b6120a37fb177d789e25b7a67d38f63578663b6ce4eb8bc56749d5a5e6288c1ec972b96ec60001b61201a565b60008290506120d47fe5b181968385ffebb4c7268be2c778f81495541d6c48ebf758f9d253ee28613d60001b61201a565b60018303925060028304831792506004830483179250601083048317925061010083048317925062010000830483179250640100000000830483179250680100000000000000008304831792507001000000000000000000000000000000008304831792506001830192506040517ff8f9cbfae6cc78fbefe7cdc3a1793dfcf4f0e8bbd8cec470b6a28a7a5a3e1efd81527ff5ecf1b3e9debc68e1d9cfabc5997135bfb7a7a3938b7b606b5b4b3f2f1f0ffe60208201527ff6e4ed9ff2d6b458eadcdf97bd91692de2d4da8fd2d0ac50c6ae9a827252361660408201527fc8c0b887b0a8a4489c948c7f847c6125746c645c544c444038302820181008ff60608201527ff7cae577eec2a03cf3bad76fb589591debb2dd67e0aa9834bea6925f6a4a2e0e60808201527fe39ed557db96902cd38ed14fad815115c786af479b7e8324736353433727170760a08201527fc976c13bb96e881cb166a933a55e490d9d56952b8d4e801485467d236242260660c08201527f753a6d1b65325d0c552a4d1345224105391a310b29122104190a11030902010060e082015261010081016040527e818283848586878898a8b8c8d8e8f929395969799a9b9d9e9faaeb6bedeeff7f01000000000000000000000000000000000000000000000000000000000000008082870204818160ff038501510495507f800000000000000000000000000000000000000000000000000000000000000085116101000286019550505050506123237f47e5fb5c88ba5b375a135b89a8c0a68873e392c09922b272d8966aba5c3f7c3860001b61201a565b61234f7fbc9ba0fb27ebf2a0e72e6762071591abc31bc5ea7562d12484e6a64735613e8b60001b61201a565b6000600182038216148015612365575060008314155b156123a1576123967f5ab38126649253ca188d33563fa1d6544a328defb34d7b0cbc18f3d4c88b870560001b61201a565b8160010191506123ce565b6123cd7fe21f756a37e92cd4ac7c74e532d9bf79eeac155045c78dda9f12d37e2de24b6d60001b61201a565b5b50919050565b6123dc61581d565b6124087feea05ff727e40223b21d259ddbadd8c6bde3ff160213ca309c68dd1d74ad620c60001b61201a565b6124347f68a1de7e7607b608ebdfc11ed8ec53387190f97c108cb183540d0aef933a9f1860001b61201a565b6124607f08c0729fd3c76e9cbd53f7927f5e3812a4f34ec606caa4f1fb55863113abe64d60001b61201a565b61246861581d565b604051806060016040528060405180604001604052806020815260200160028152508152602001600015158152602001600281525090506124cb7f2ac171dffae7f51ccd3c2c1985180aa8d54f0bff4e6187ab5c1b9ee06b6a5b0660001b61201a565b6124f77f107e2a4da9d9b52a043f2986ccb7ce4e730de611ea12ec9e882b5b84619ea06d60001b61201a565b60006125257f8aef791afdc6a5141b6bc18d406764e6f1b729e3e64d00a5539c775176e201ed60001b61201a565b6125517fdc372937d67918b912a9c92c2b466e15e7312a246b97f20e1263e2d2cfe3331860001b61201a565b600061257f7f78563f03be8d844d21c892fd7ea0b88f434cd14136fde81c1983f5e09e70a23860001b61201a565b6125ab7fde6a0cdefa154ca51bf0b333803d1954d92643cb0cd1cd8fbd7232e8c869d8ff60001b61201a565b60606125d97faef8d172da7fc93869446fb589f1d961a96619f5263dadee7c02a26d8f1fb46660001b61201a565b6126057f27476555c612acfd0de4b8a51e7ffd827e2faa2ef1fe38045f62de8a67d0f0c060001b61201a565b6000861461261c5761261788886129de565b612627565b6126268888613d96565b5b94506126557fc1db7bea302e0f8b9cd00b5bcfa818c730cc943aa705be7b8b02f535e87baead60001b61201a565b6126817fcf44b35d00a7f4bbda9d3ab7ad68479646def5eadc616f1608a510bd2225f77b60001b61201a565b6000856040015190506126b67ff677e617026e4b3f4faeee107575ce5f39cc2f4d84cb4d630936b08c6063d11060001b61201a565b6002810293506126e87fc06c394cde60d57e04520e0dc0b3566cfdef6e35b0bf1fa59aefcd1ba6b4411760001b61201a565b6127147fa6cc7f0a2df8d3ecbe3f6a57a8de097e4518906e5c177566089d6e1c26717c9760001b61201a565b610100848161271f57fe5b066001901b92506127527f88ab41140b6c004452c76f570295bf4d51df1f2612afac3c11935d17617bda1760001b61201a565b61277e7f77d3d90a7da623a5e2d6d334eb52cc67e1297a978e442425510fa57f0583791a60001b61201a565b604051806040016040528060208152602001600081525091506127c37f5964f1c2f6cd17edc76484b4d674698f5457ee2427c6b634f5e83b1dc8ff017660001b61201a565b602060016101008604010282528260208301526020825101820160405261280c7f220f446dbcfc55e4734baf9b1adb35c0b1a42b19583275562090acea4bcebdcb60001b61201a565b6128387fe8c597b9ede156b5c3f09a84e8cdd3bc0c87f1b45161e3acc399b7d6cae76e0360001b61201a565b61284061581d565b61286c7fade3ae45b0809865ed8635f173b8752efc9ebb30035ee54bbe3b66727a8ccd8260001b61201a565b6128987ffa8c9418404d52b21da31f6a4e391d1abc0057a33aab85c4b93f7899d6f9469360001b61201a565b8281600001819052506128cd7fbf2b9ffcbc37b0ce92cfd6a951760ae3ab0de4fd7591d2f213d39ad1e09ea3c860001b61201a565b6128f97fd642620b1d2b0f63f9e139cf3dfca5fec14ca3afcd109273bdd5957c728f8f9c60001b61201a565b60008160200190151590811515815250506129367f7efff72827bae1f054f5aba5f1500feb1da89e1b524eaaaef2edbdb4c0c8644960001b61201a565b6129627fd1b7569f50c3518887b1209cf663d24afd569b8a0af3de1431ff77826ac4c0f760001b61201a565b848160400181815250506129987f0cecec837c403df639315a7fabfca97edb1e844adcd06a8a5893116d080ca27b60001b61201a565b6129c47f3804a3ef1ad23708770a35057e06658a25ab23197dc9f36c758382f184b4ff4f60001b61201a565b6129cf878783614c01565b96505050505050509392505050565b6129e661581d565b612a127f9d5d2587eb5f82b6a2f696e726b2126d68ee5288faf9e8087544a9b615eba7a460001b61201a565b612a3e7fab4a8504dff628b5d8318a19d19fa783ca8b86e4ccce328cfcbc5201776174e460001b61201a565b612a6a7fc6cf3b5f50cb41974e698e1966fb2934a7518c56393b248f28e2a1398e4efd6960001b61201a565b612a7261581d565b60405180606001604052806040518060400160405280602081526020016000815250815260200160001515815260200160008152509050612ad57f254db64b0a3bed825fdc3af4c21ea7c9903262d4f388f6c982cec37d3ddb3c5360001b61201a565b612b017f2157fe2ab6aea3d06814d64247c38c57de855fa2ed86f06f4eaac7981f3f4bb960001b61201a565b6060612b2f7fe7b3e8a7c592c8979de2d320bdf50b52f8072dc7255f1844c3de7f7b927922e560001b61201a565b612b5b7f1816c93360616594d04f63ee3c3ba364b3ce67e3e40a5da03184ee6ce47c52ed60001b61201a565b6000612b897fe8d96729502a9cb77890bb07a7b6a2e629eff45a2e04707aacb067d32870a13f60001b61201a565b612bb57fbdefd60db24cd2e7cf9883b1ad77d71204862b28e69a77625b5d1bf8330beb7660001b61201a565b6000612be37fb1751454fb3c9383d594a8e835b92add57e33d1d718d5b87400518456e1ae52c60001b61201a565b612c0f7f20071d85d4034e8ed68ba31024cb9e965694d7b79c4561879bb4af577b78fff860001b61201a565b612c1b878760006114aa565b9150612c497f7f05c240862dfe4bfc763d971968bddd1f9d2c6953a857c29aeb921dba4e644660001b61201a565b612c757f017d9d096f03c3a86f8c96f816d5e42ef777b27a76366a990d0588f0295d533f60001b61201a565b866020015180612c86575085602001515b156132b557612cb77f9d4acc66100054ddd3eafa8174b6c524b754ed5c23592ae7420f13e41de9ab0460001b61201a565b612ce37f18e6ded294599bafd6ac06e8644caf427c13fff71497c86fc1dfb5753753525160001b61201a565b612d0f7f70f67843c575bd5a94e9273f4cb4f888d6ba07669f75dad641e29caf8ba2024760001b61201a565b86602001518015612d21575085602001515b156130b557612d527f0f816fa303171777626a5266b0b4d8463f9c69f11c3387988e068a677182b61260001b61201a565b612d7e7f87e2758d841916d7afa9b7a14f17729800373d45c52f503bc4ab9b2c775f418a60001b61201a565b612daa7f892cd54c7356efcca99104b1b7b297d1dc6d68fe59a8432bf04656bc5186d7e560001b61201a565b6001821415612ebf57612ddf7ff03378c18ea657ec1d3a5588b731c95a24bc3ef8c63f2bc5a9e9384a31419f3d60001b61201a565b612e0b7ffb0d29008ded91c49c970b255612e25994b0a3f411b768a00f94abf03edaa85f60001b61201a565b612e377fa472ebfe2fc7053f6bc5ac8f17b88a0f1dc032105aa3f13b06926f2d3b45d50160001b61201a565b612e4987600001518760000151615036565b8092508194505050612e7d7f9f328ddc63604f5f52d4efba275a87c8f7b3796c5bfa1868aa6941b4a0738c2460001b61201a565b612ea97f826d3511229275d0f74994e7383bb3e5bd5cc8827e00c3d4ef95336e18d5612060001b61201a565b60018560200190151590811515815250506130b0565b612eeb7f5238266bc9510debc0b3215a503b5b638ae2a94957d90baa7862b33ccb6865e260001b61201a565b612f177f9d55796a4fbfbc6169f935f7837ef117aec89f0799c57065c3f1b8cb54dadc6660001b61201a565b7fffffffffffffffffffffffffffffffffffffffffffffffffffffffffffffffff82141561304b57612f6b7fa35ff98e3f5b3ea15d85c19da52fd6ceba6647a542c07ffef009f041d49eda6e60001b61201a565b612f977ff9a4fe6ed758470edbf2a288dd9302fb7514a5263a2c2b20072232870e5f6db660001b61201a565b612fc37fb73aa2e75665da5235ec0aefb7bb252f88d0df3905992523c357122ca6bcaf2160001b61201a565b612fd586600001518860000151615036565b80925081945050506130097f384410ddf74841d8ea7da0080de2a81386adde23b136f91071efd3bab4b2eca860001b61201a565b6130357f7349a30566ce61884928b93fbd6316009e5ef994a9aed49dc986630ac0ad75f960001b61201a565b60008560200190151590811515815250506130af565b6130777f5a7f5d26bc0074a11e08b2914e71b120863f038dc4ef430bb2ca9b688ba972b660001b61201a565b6130a37f90e704f656c343ffa0177b94b7eca9753228a7e1fd91bf5f00d897c5a358c77560001b61201a565b83945050505050613708565b5b6132b0565b6130e17f3d9a90c34b1f000ea0a2daa0c46f1098b18ffecc19990ecc99ab7fd3156930f760001b61201a565b61310d7f3ac331905e0de62b8abd7fed756b2478a6437042cabe76f07a4aa73781aca90860001b61201a565b6131397f961821b8c2556f599d8fc5816b37fe05e0a710b33fb80def48c5e4e7bf8c3eaa60001b61201a565b600082126131bd5761316d7f012749de1547bb4b136bb1e08dd476e823b39b8c2896a084f070cda10f0cb62a60001b61201a565b6131997f4d686580bdab0664bca12facddd33e8624215e73663ec3b1088b74701ab5afb860001b61201a565b6131b08760000151876000015189604001516152fc565b8092508194505050613235565b6131e97fab59b08535a31d66f77e8097847c4c833bad72f7f4c8d6d961376b941f1c5cd660001b61201a565b6132157f22650d6ddeced034c70cf515f5f9851a7c065b32a7a164c4b839750a4dcddd0360001b61201a565b61322c8660000151886000015188604001516152fc565b80925081945050505b6132617f4ff34d058b2c9f5b9836baac63af5e0596304634f26deee33a699b97060f9b1960001b61201a565b61328d7fc0dfcb18814f49ee53de0f39aeafd956941f572dbd1cf370cef9ce04fdac57f860001b61201a565b866020015161329d5760006132a0565b60015b8560200190151590811515815250505b613640565b6132e17f4b6a64e88775de4277afb5c267ade5b01b370279a3799877183055b4ee4321ce60001b61201a565b61330d7fc5ef61eaa4dbfb2ebccf20d314f31a8209c3509c39820691e361b82a8b80c75a60001b61201a565b6133397f95f6953ee8e6e824e320d815397aa6f2e95b3042f0587720a43b90035b0c102e60001b61201a565b600182141561344e5761336e7f7c904c4a40a8e159b9379630c6c672ad9caa349fc5eddf2d59109b865fb510d460001b61201a565b61339a7fce1429b97c9d7f903640a5c648e30293f0e1e607a0776674d2c28f78dde0b84160001b61201a565b6133c67ff070a32fefa964a5a2ba6721240f3535edace0fb18c0d14633bcf7fd6773766160001b61201a565b6133d887600001518760000151615036565b809250819450505061340c7f269bf13c4b0cf53b231e7844d06419dd2a06d3448109b81c66678ad196b9df8e60001b61201a565b6134387f18680458de7efdde3ce0ecb325578ce3342e4ec758efd726df16d0426eded1b760001b61201a565b600085602001901515908115158152505061363f565b61347a7ff2c8d8809db27f0be175215936c6f0a4c37abb78835b12b4b1cc16a2d1eda7c060001b61201a565b6134a67f8dfe3949514e7c2bcee3cadfab5ea0cb3591e0c87ab742b65e3a91a8d2f345bf60001b61201a565b7fffffffffffffffffffffffffffffffffffffffffffffffffffffffffffffffff8214156135da576134fa7f0c31d69d990cc1fd95286eef49bd3f680dd09b492f4da0b6b43aa97f7389bd4160001b61201a565b6135267fbf3b191933e96395a1ae0443d3c56f13c846312125f4ec3bac16d6e70e613f6d60001b61201a565b6135527f9e10b0deb2876a28145dfc0f72294708b8b2316e7af058fdb6737c97bb4df98360001b61201a565b61356486600001518860000151615036565b80925081945050506135987fb0465c176de67d2731e3f5959ec2023b72bda9b41f16e1df9d0a5e06f40c83f260001b61201a565b6135c47ff922134ec108f902f2fd288dea52ee5b4f2874957ecc7c2ec1859e91c1cbe61860001b61201a565b600185602001901515908115158152505061363e565b6136067fc740e6a9832026d562d7d87c435ca6c4879f3132d6c21d161860c3d8895a62ad60001b61201a565b6136327f1582712f62e7167338d10146f969402a3a19ce81e1f07aea9f9fe34483b266d760001b61201a565b83945050505050613708565b5b5b61366c7fae08369dd948dc8fd32471de9b4dfb71a1b001839e680d6fde4f179b082d3f1160001b61201a565b6136987f2963e0655066f44b709697f8d1c81e1cc49b4496cbe8a696819dcf7817f83bc860001b61201a565b8285600001819052506136cd7f1c728954803a8538c91f04c196d92c561dc3f1d4b250e8362815cdb2e993b9a360001b61201a565b6136f97f72ca1cfe68a39bd1ee92c1c2fe1e777f7276ec39aa7888b0740fe3b79895422c60001b61201a565b80856040018181525050505050505b92915050565b61371661581d565b6137427f5f71ec2540ca6506f3da27e9e7afd16d20834fc2171a0e401ea74b9d9a70f6f260001b61201a565b61376e7fb531c0129dd48e294ad222f5d78674cc9a1323b228c45bcc655ae91ae8c6baf160001b61201a565b61379a7fb1547727ab8f353e5bbe8938fc002fa3623dad0b065f5ec1c3b3080233e1103b60001b61201a565b60606137c87f64f53e235862f5c2d33ea465c42782d0ef999cc8727f963f34fcde663a991be160001b61201a565b6137f47f70745017247253056be03c6e9c62b8706bb396d4be5eed048b5d51219512904e60001b61201a565b60006138227f4ac3238fd681143926a4dc093f5c9e5db54ff658e480ea94ef820e6b701dc87e60001b61201a565b61384e7fa8b007340785111c22d8a1a9d10327fa12b8a45068a189ada270ba43e8c127dc60001b61201a565b6000846101000390506138837fb59d5b3db5f6f9c69131b352872c50b55631f80f4f4a287e1213055f0e207e0d60001b61201a565b6138af7f4e1c409017f2498538151c0d689ebb4db64617f1b0db1286e5e51e88a5e50a2260001b61201a565b60006138dd7febf2eb0fd9b9ccf97e035dc649d4e9b5f2843024a10d7343de67219f5d89b30f60001b61201a565b6139097f603bceb3882c44f534f6b136dd79de3afdd0134abdbbd828fb367ee45157d92260001b61201a565b60006139377f43c325a6499b055aaba73dc8788e70a76c525b52ac42d86a810f27184866d50360001b61201a565b6139637f1c6d741f0f89a3d61b9089c009358eb7bd0dafbd52a6f30176d78b80ad1fe69160001b61201a565b60006139917f33a159aedc78e803dc0f154e67ecff8c6dd31a9cd0c11984b5a440b4133bc01a60001b61201a565b6139bd7fd47c0b5772084744f0b62eb3622474c085ced3a6e47c39ebf028b1d7af43738260001b61201a565b600089600001515190506139f37f1baf30d6bc5242740ab053aa19e217bd8fc67462187f6f91786c44437060c0c760001b61201a565b60206000039150808a51019250613a2c7f87ed6c91ae2a9030bec750e1799dbe5d08a8d1650686286b41c0fd7965145ee160001b61201a565b613a587f0dbdf7b8cd2e1ce8e750ef645219261c22de71a9c39937dbe911b4c4e95bfffc60001b61201a565b60006020820390505b82811015613c0d57613a957fc0dcba19f416d28a6fd454299eff9c659f40eb309abc8539418c1220c01be38060001b61201a565b835196506000811460018114613ab15760208503519550613ab6565b600095505b50613ae37f83073ac64863991b648208195804d0650bf3f8bb6df79f2783d21176a2a3598f60001b61201a565b613b0f7faf55733ae3300e5cc2da1e4355d0aa38b69c454e2442d02a877428a1fcfaa58560001b61201a565b8987901c9650613b417f71e6b42df32e586268c762078463d846bbfc8437b130cb11b88e1696e10976bf60001b61201a565b613b6d7f1194d659b9a8e7f37797de93b6dda1a559533b82d89a13636d6e8e4910076f7660001b61201a565b8585901b9450613b9f7f43045c9b0341d8b117dc0b10ddb19e0d9e02fc83931bba6fa21af76fd12ea9be60001b61201a565b8487178452613bd07fa083526f35c605e7620fec2f04a1bdbc3dfe6d4ea15aa5ebbb19292c3739aefe60001b61201a565b613bfc7f7140489c12c168062dff9ed467a25cc06a3593b86290db041ceaa7fca7265ac260001b61201a565b602084039350602081039050613a61565b50613c3a7f56fdb05db93788bd77fb2282ef888bf45e1e8a71dc5ccd57d9e2210c0421894460001b61201a565b6020830192505b600083511415613c5c57602083019250602081039050613c41565b602083039650808752613c917f4d19c70da1f3f8de583982547fa0f43ab8287edb975ea5e5b2f67330dd91b3f760001b61201a565b613cbd7f80234999b6794c1f07244ab53e319451ad704c2e707fac62a89dc4a56ef7375d60001b61201a565b868a60000181905250613cf27f05268226dd77b8e3fde2b73c32e9557753921daf7415ef3412e82308c6f57bfd60001b61201a565b613d1e7fbd6a93c5826086d4fb6ed5c299811d1c0a0cac2bef6ed159cc36720fc71be5b260001b61201a565b888a60400151038a6040018181525050613d5a7f4523b1529ccf4eb9258ccbb37fee4e202d41d365028e5942478b67a3446c58c960001b61201a565b613d867f149b28e3f667cf79fdd29f8e2df48a2cde094eb8d42e17fa728320fad336e36360001b61201a565b8997505050505050505092915050565b613d9e61581d565b613dca7f7472d4b1fe41fc26df06419e47ead5e361983813d670b0fcea60f39b2116361960001b61201a565b613df67ff09a33daf992719594b42b6d9085c37c8a5ed45914e801fc4c45cb1df752958160001b61201a565b613e227f3f0736a4ff9e68660abcd1d8fd075c09daa05f311393fa11a2b42602f06ad73860001b61201a565b613e2a61581d565b60405180606001604052806040518060400160405280602081526020016000815250815260200160001515815260200160008152509050613e8d7f58eea1f4815a064e57b55f35aeeaed3326966113b88fe01b48d908b4874d6d0760001b61201a565b613eb97fd7590a3ca674c5bb068b494a724c59101717e719f6b2cedd358f3e2d20010bb860001b61201a565b60008460400151148015613ed1575060008360400151145b15613f3757613f027f507942660a1ce59b8c71483d6a37442dd34cf0e3ce337a965128d9bedced4bd360001b61201a565b613f2e7f676036d8a97f9fead58f27dc9ac597fad9d0c146d300d8c80e323735ee13cc2b60001b61201a565b80915050614bfb565b613f637f3fd6ec8fcdda0a2511091271eadcb5991252000e15076fdea927f9c090d0a04b60001b61201a565b613f8f7f8de209cd0de75329374c567539191961e489696c43b040735a9079842e83126260001b61201a565b613fbb7fe24df02e4f76c40e5be811f9597a585f5e2c3ed0c17743d062c336b0a8056f8a60001b61201a565b60008460400151141561402957613ff47f4ef1ac6b369a1021de6116849369e773d9a72989e866e25213f79d4e1598673d60001b61201a565b6140207fbde5fba4d807dc869171ea4f70fc513ef8121d1fece428820ed968f79225385760001b61201a565b82915050614bfb565b6140557fe93b4bcdde99e07cb96ccf4de17232e12937b73b41f1e510246f3a32188a8f3060001b61201a565b6140817f27aca403d47ab1e714deb83d3294e482d04b73b8fcbd9aaebe684306c088559f60001b61201a565b6140ad7f6c0645b001bcd54ae4f437fce77657d5fa12e9026b111ec873a1c94d346b2e5760001b61201a565b60008360400151141561411b576140e67fc9be6910332eab1056c10a67dfb4d5834bc522e1f8391cdf0880eb0fa265a43e60001b61201a565b6141127f91396f4c02f57aaaddee094cd55294c6127a38f707faf28947af814e4142489660001b61201a565b83915050614bfb565b6141477f454d8fff1d60ac526cf46d7519c9b3ddffd64a6250f0b1ef11112eaecab8f0da60001b61201a565b6141737f8299ca212cf620d7a2429ccd986cd8d6939e07f85a4a44e6250a2078cbc8f96f60001b61201a565b61419f7ff9c5421f42647ac5991cb07e00af8d5ab50e2b5b9aa0c6f862effcc2df3ed0f760001b61201a565b60606141cd7fdeaf1b7b2c25ead218017156dc18326fd16f66e2ff80ac7a7082c441461dc49760001b61201a565b6141f97ffecbbe17db52e21dbcca9ea00d87f9b0c3d59797293cc33eb4304e5ad9377bc760001b61201a565b60006142277fb3a4532c187ae7c98b3df278c8c871b0c1aab60e5b0b92e6fe099615dfaffa8060001b61201a565b6142537f3763a11aa655536f3cb32ffc08dea2a8249f07bc5280897a2d9338174ffa12d260001b61201a565b6000614261878760006114aa565b905061428f7fab541b6355f7e6049c90dbee8ff5c97842cbdcd686c27c04d5902d866fffd3fe60001b61201a565b6142bb7fbafd69631799cf390966466f537e5251df73c94180e571ca1fcf916930e2dbb160001b61201a565b8660200151806142cc575085602001515b156148f1576142fd7f19453858d2893a96f0908303c7792674746ad929501ca430a331ddcdc1ca524060001b61201a565b6143297f7fa3e2759daded6c80e5c2101249af2c77df5bb8aaf714e69111ea797146df3860001b61201a565b6143557f391d62da48da716a828f421b2c937d953524e01c22732335dd98571ca19cccde60001b61201a565b86602001518015614367575085602001515b1561455a576143987f327e517114bf75563c95fb3f4fcc61e7089281e2136c11f662ccafce8c47614960001b61201a565b6143c47fa63c4cafe3c2baf1cbb0111fc5d5d346a9bc5a88d710434ae3e2e56f42c284a760001b61201a565b6143f07f6dd3725307fb26776bc11c9251913b59d34b1ae61201ae5097b7280be025781660001b61201a565b60008112614474576144247fbab4621d6b444d8a2447df130646acf3ffd8d0ade335d5a6db01bab0ddc3465e60001b61201a565b6144507f4772013a73876b17f48f76bb0d990fce30090ea005dd7401699d7a19676416a660001b61201a565b6144678760000151876000015189604001516152fc565b80935081945050506144ec565b6144a07f6466fd54a385cf1454e235e5db96b8592a778125ff133d7849acd3061ecac6c460001b61201a565b6144cc7f74c1f3088486ee176137e5e2c948947a34c94bfc0a6cce761dc416279c2b688c60001b61201a565b6144e38660000151886000015188604001516152fc565b80935081945050505b6145187ff6e041a00c313939ffaf72bdfb938bec451374699c8612f95664cd6e560b95e360001b61201a565b6145447f9f578fe3688fc397b138dd1293c746a22099d2e45ef2e69a945ab3fe0c59fe5e60001b61201a565b60018560200190151590811515815250506148ec565b6145867fa92cbfc9bd849b35d5beb2c5d6dfae8e098f9d258cf0b545061a9c06a0dafcf360001b61201a565b6145b27f5e99ebb1d148e8e41af3f2ea41b1c5fa9bb69e3d8648032540a2d472c81126d160001b61201a565b6145de7f080bb61d716dd349176715806311e039f211ed99df151421bcef63e0d964f42360001b61201a565b60018114156146f6576146137fb128c97ef257b54e656f8de4720f126705db836094dc2fbd0755d8afb7f6292460001b61201a565b61463f7f9bad3151949e37f02bcffcceff1911cf7385ad0bf6873c2c34c5ef3f8ac090ce60001b61201a565b61466b7f9b8fe9b53518cb369a82c59ceef1601a8b532eb6646b0baef78c0984a67cf9d860001b61201a565b61467d87600001518760000151615036565b80935081945050506146b17f43059ffe7782566ec7610dda6fd0f498ce59bfac20cc5c31d7fdfddac7a077e160001b61201a565b6146dd7f6c74c3ea31cb6a14fa447227968ee7bdec1dfb7888559bbfa463facb87f1aa8a60001b61201a565b86602001518560200190151590811515815250506148eb565b6147227f838b0414d4a813c83f17a5814bcb03a523e291cd5f136e8b256a113a63da097a60001b61201a565b61474e7f4c3acacaa34f5ead30893f693f96b6123decf5b7c9db858fabde761742c8701f60001b61201a565b7fffffffffffffffffffffffffffffffffffffffffffffffffffffffffffffffff811415614886576147a27fb27f0d3338f34b8d5a3d981429cc3d92f40248db0810785e24ee864bd0012b1f60001b61201a565b6147ce7f6d807f0e4cc132a684dc903f656056caff8860567f29281d0cac0c236d6a235b60001b61201a565b6147fa7f87ddac5f4945d84ed501440c2a2c23ecfb9f280cc9586a2e765f9739a38e300f60001b61201a565b61480c86600001518860000151615036565b80935081945050506148407ff98f114eba6a6161a6dafbe13dc5c09571da514e8d1ad4611683c2a43029d67a60001b61201a565b61486c7f329448c1fc80ffb04cd94b8a90d6e5325e42c6251f8a28b934b034786650877160001b61201a565b8660200151158560200190151590811515815250506148ea565b6148b27f06f24121957c334f9f864b0d05f5d76a7156c70dacf7ec46ea2f3a7e1e9039db60001b61201a565b6148de7f96a4e18142223faa7268db0b418aa836b1472d244b5e781966c1c1caa2c4ae9f60001b61201a565b83945050505050614bfb565b5b5b614b33565b61491d7fadd29d51e60a8d9c58e5121298650f3d6f5476ac7cb69f92e3015bcd7e77375760001b61201a565b6149497f704a3ada5a5e65464824ddb7f5784cf1ec22a3e90b6e45bddf1a23f8d6a910e960001b61201a565b6149757f477e174293c14c6c0549bb752dcebeda7f08fce26c2ba9dce6c40580d116cdad60001b61201a565b60008112614a25576149a97fac794ae276ca5dbc1629683d3e18b71e7123c50fa9b597929759f7050d6e0aa260001b61201a565b6149d57ff2e999c5621cd5e7ebec183599b06ff17ca394235f48d06cce3f6262a1dc85a660001b61201a565b614a017faf64e8031d797061a91afc4cfb83c263b7b0cab150ab23ab3d14e01a510f849b60001b61201a565b614a188760000151876000015189604001516152fc565b8093508194505050614ac9565b614a517ff69c79d87bb9eab52a79af8e518b2a0848afdd8deaf4d9347049407b87ac1d2760001b61201a565b614a7d7f67cf8ad13464fd89ef395a9db6191008efa587cbc3752c5846ada3b0c7e45f8960001b61201a565b614aa97f0fcc2972318f99b5b59bb768887c313124a9b5fd8ac36f037eeb793ec61a883160001b61201a565b614ac08660000151886000015188604001516152fc565b80935081945050505b614af57f4eb759dfb9e3e079bd39a2c1dd2e7ac8db3012b39888eb188e335ecc3f0e037760001b61201a565b614b217f6dbf381db5a0ae7997abd7a265fa6dd1e53957c08333bdc8a730016355df4f8960001b61201a565b60008560200190151590811515815250505b614b5f7f7021bead718fadb020808a091479bb9c08cd3cc52b07d6aab1011be5e5e31a7560001b61201a565b614b8b7f76948399ca2941b307a8deee83649e6c41a6e3ffe798eff74ab2130bf67b763260001b61201a565b828560000181905250614bc07ff9364f2007a74db8c975056b150b0a8e6baf690b093b8f0dfdd563b85d5acbbb60001b61201a565b614bec7fd3d8ddddc59dafc9bec130351c563092c47254920f0454ce3d663c3df559683860001b61201a565b81856040018181525050505050505b92915050565b614c0961581d565b614c357f4e98ed04b5ff61925336101cef0d38ff4edd0ca654bd413ddfd07a0ae812dac860001b61201a565b614c617f9ac2f80ea51033a6ab2d53770f5d984b894e23028c3ad4d17a65c677b7403d2760001b61201a565b614c8d7f5133a133490b39fc061923c67f707841ea0172c090adfbd7068cd3fffa63032460001b61201a565b614cb97f17e24f47f7b2b9734d95d135e3735b0b235ba1c1526dfa060312209991cbb59e60001b61201a565b600015158360200151151514614cce57600080fd5b614cfa7f04a19862ee76648f2f7d7186c986d0718eb1351c127e5aaad64120ab425a4c8960001b61201a565b614d267f756979b7e347c3a186935c78e5d2bad128096b4e225f2ae3c9d6c86daa14064d60001b61201a565b614d527f81f6848a78956c10905790b201500cc82a8b8f45626c38729e571f9e33daff1b60001b61201a565b6060614d6b856000015185600001518560000151615686565b9050614d997f2c28aef7a6a1bf746c9f0588b65a73d9da754ea3f3208961299b25c49673da3760001b61201a565b614dc57ff0af0495438dc83202525fb90a1f322cec9358b6be5aaa1f9d5e24c2faa068d260001b61201a565b6000614df37f32f023b7ad09010f08e48cabfdc0896d3d4abdedfe9989acc05dc7659ad7a49760001b61201a565b60208201519050614e267f1ff97561d3902cb0d5de87e7b3de02264053352ce0f9ffe5c8f64f1ba353aa3b60001b61201a565b614e527f76de803ed0867f60d99ffbe132a85b18ed40180c52bb2452c65b13ed5325157a60001b61201a565b61010060016020845181614e6257fe5b040302614e6e8261201d565b019050614e9d7fa43dbd83dc5e6dc2216eb965bf1fce6dc2fe8ff550f3e3274dce7cc28d76e3bb60001b61201a565b614ec97fafd1de159323449f5bea7946d18f392e84903cadca7eefb1d10f2c8b9ad1579660001b61201a565b818360000181905250614efe7f17b4a40beabd447742d905c08213981d39355551bd5f070b6a186362e89931f860001b61201a565b614f2a7f72b8956655d5163ab1e38e2f9713e3e977f5d67673aa660f60048bd209f68c9e60001b61201a565b60001515866020015115151480614f56575085602001518015614f5557506000614f53866157b0565b145b5b614f61576001614f64565b60005b836020019015159081151581525050614f9f7f4e0effb67e21c2270643ff2dccfcd223a3d658d19640f9278fa665ef5a9a7be060001b61201a565b614fcb7f222ab9f88e193b0bb17e390d55d6749afb93fe290787caca46dcf0c3f028356060001b61201a565b808360400181815250506150017f91ec13daa817716aa4ba53dd25fde225b3638a6c5b9e6775c44b928db746991760001b61201a565b61502d7f4a0974c749fa5a04773d439f96cadf7c25afad81001b745b561803b8fe320d9560001b61201a565b50509392505050565b606060006150667f2ed340d26e463e59d7803619d08c7bb5444c07bf31fd243773cc24389444a6c760001b61201a565b6150927f765ab583f0c97bfb76b10648c5504aa9e61810ea258db83830712eb9dec9ebb760001b61201a565b6150be7fe4d656875581323c229506e4f54867986479a245fd66089dcd910260f4d756a860001b61201a565b60606150ec7fa2be95fe3038443a00e7b2d0e03f155b6d5d8123b46e10a1012bf8365230a82b60001b61201a565b6151187ff01efa357db301ad4a43f7d55d9a0cf300b75672783bb4326a35163b9a8bd91d60001b61201a565b60006151467ff0da53f30c42f11c2d48d4b9121566b8035310b31ee6733a3872acc002811dbb60001b61201a565b59600160000387518751808203828b01828b0184870160208101865b600080821414156151f3578451868211600181146151a4578c8203855260018d146000831416600181146151995760009d5061519e565b60019d505b506151da565b85518d81840303865260018e148c8214168e8201841017600181146151cc5760009e506151d1565b60019e505b50602087039650505b5060208403935060208603955050602081039050615162565b506020820191505b60008251141561521c576020890198506020870396506020820191506151fb565b889a50868b528060405250505050505050505061525b7f495c4b7c0e3ec2e2ca8a09c537322fdf07c363b9a5c5477d198da6bde8af3e8d60001b61201a565b6152877f0a24884f617d6690067ce768e41074a12f8826b21312aa3f3da3896e5629a8e760001b61201a565b6000615292836110dc565b90506152c07f46f698fa9743870269333f0177c0b8914d7cf3553834f5d851fae1847da0655360001b61201a565b6152ec7f460c5b64c40af4515e1ae924fb4a6c4a63d93ebb205e72bd5776c72ef923424e60001b61201a565b8281945094505050509250929050565b6060600061532c7f09fea33a1c3575239c540b5bb611b9ed8d93c93bd24758c902adecfaaed9067e60001b61201a565b6153587f26c571f3d0cec062b00b450107ad076ef94b84a03318eae2fe42a32b78f6b89a60001b61201a565b6153847f96bce461898e876746acf1f832a505854479a55d4716bba00a7ee972f1b8477c60001b61201a565b60606153b27f99bb219b04bb5e16c0e3fe406f4b4906ab849d77c43ac4be7a7ed4319214fd1060001b61201a565b596001600003600088518901885189018a5160208601018b515b600080821414156154795783518c518e5103821160018114615411578682018452600187148289141660018114615406576000975061540b565b600197505b50615460565b8451878184010185528781038903831160018114615452576000821160008a11178a85141660018114615447576000995061544c565b600199505b50615457565b600198505b50602086039550505b50602083039250602085039450506020810390506153cc565b50600084146001811461548f5760018252615496565b6020870196505b50859650836020028c51018752602087510187016040525050505050506154df7f8f0b3ba37c2c43af89880a28e1d58979070a10008615de58c824af56e8c0143f60001b61201a565b61550b7f184de09c9bd2711ccfca939e792cd70a1fd2ddda58722fb653323fe879b478e860001b61201a565b60006155397f81beb0ea3e008f8870f106d50dc8f974ce26c2f36cc35acea66a716422eb905a60001b61201a565b6020820151905061556c7f46ed3b5b49a76ec5b3a8fac91dda4d39e96e8656dea310e7ad07ee682da4a18060001b61201a565b6155987fbd28d4a64f6fb2a3593684dfaefc0eb057012d4b20c0939653a3bc08687bb28c60001b61201a565b600161010086816155a557fe5b0682901c14806155b55750600181145b156155f1576155e67fc1bd0a7f815447b42872a1c37cb0f6e69ae36ad6e03f98d195a79e40dcb7518960001b61201a565b84600101945061561e565b61561d7f6959a2323e50655e0b93222f52ae46e226e85cc28c7cf64244a631a41651f8e260001b61201a565b5b61564a7f53cc859441c9e1eef7b320ecf5dd819032b35450916361572fc04a9b41314ab660001b61201a565b6156767faa382074ea312e8d0901c72577111ad75fa4f639845d2b40a5b34c20277f7f7a60001b61201a565b8185935093505050935093915050565b60606156b47fd42523d0ebdc3c645b47e347c1cce0d8290215e96e504af6c6e3a64c0e2e512860001b61201a565b6156e07f8c41ee48c267d138db2044105fb672e538cb1939611e2941f5c7bedf6961c93160001b61201a565b83518351835160405183815282602082015281604082015283606082018560208b0160046101c2fa84606001848184018660208c0160046101c2fa91508481019050838184018560208b0160046101c2fa9150816000811461574157615743565bfe5b5083810190508383606001828560056105465a03fa915081600081146157685761576a565bfe5b5083836060015b60016000825114141561578f57602081019050602082039150615771565b60208103985081895285856060010160405250505050505050509392505050565b60006157de7f19074569c3f9609bb4a60d2d39d8c323518bcfe69edf20ba48a29c34a1d8b64160001b61201a565b61580a7fd040c18cabd2c62dba331bbcd2cdf14fbb69645d3acd56ff3a808735456573f960001b61201a565b8151518251016002815106915050919050565b60405180606001604052806060815260200160001515815260200160008152509056fe4e6f7420656e6f75676820626c6f636b73206d696e65642073696e636520636c61696d20776173207375626d6974746564a264697066735822122001f7e306e63881f0359bde47109c0be7e3005623b6b34837e6aca9423186909c64736f6c63430007030033",
  "linkReferences": {},
  "deployedLinkReferences": {}
}